:020000044000BA
:100000006F10466E13000000130000001300000084
:100010001300000013000000130000001300000094
:10002000732700FCF32700BCB3F7E70093F7170032
:1000300063940700678000006F10D60393070000E9
:10004000739007BC736004306F10D60F93050500E2
:1000500037850640130101F813058567232E110625
:10006000232C8106232A91062328210723263107E2
:10007000EF40461BEF40461A9377F50F130400003C
:100080009304D0001309A000930900056F008002BB
:1000900063862703130414001307C1003307870086
:1000A000A30FF7FEEF40861CEF4006179377F50F7E
:1000B0006306340113850700E39C97FC9307010650
:1000C000338487001305A000230604FAEF40061AC4
:1000D0001305C1001306000093050000EF30D64061
:1000E0008320C107032481078324410703290107D3
:1000F0008329C106130101086780000037E3FFFF71
:10010000130101FE37850640232E110013050568F3
:1001100033016100EF404616F32800B03727000096
:10012000930601013307D700B7E7FFFFB307F700D6
:100130002326F100138507009306000093050000B5
:1001400013060700130880008327C10003A70700D8
:10015000938747003307D70023AEE7FEE398C7FE37
:10016000832705009386160013054500B385F50027
:10017000E39C06FD732600B0330616419356F64104
:100180003723000093962601330161008320C101CB
:1001900093D62601B386C6003785064093D6E6403F
:1001A00013054569130101026F40C60737E3FFFFDE
:1001B000130101FE37850640232E11001305856CBF
:1001C00033016100EF40460B732800B03727000071
:1001D000930601013307D700B7E7FFFFB307F70026
:1001E0002326F10013860700B726000093070101BC
:1001F0001307000093050000B386F6001305800086
:100200008327C10023A0E70093874700E39CD7FE24
:10021000832706001307170013064600B385F50071
:10022000E310A7FE732600B0330606419356F6414D
:100230003723000093962601330161008320C1011A
:1002400093D62601B386C6003785064093D6E6408E
:100250001305856D130101026F30D67C37E3FFFF74
:10026000130101FE37850640232E1100130545704A
:1002700033016100EF404600732800B037270000CB
:10028000930601013307D700B7E7FFFFB307F70075
:100290002326F1001385071013860700930500003D
:1002A000930607008327C10003A70700938707026F
:1002B000B385E500E39AD7FE2320B6001306460077
:1002C000E312A6FE732600B0330606419356F641AC
:1002D0003723000093962601330161008320C1017A
:1002E00093D62601B386C6003785064093D6E640EE
:1002F0001305C571130101026F30D672130101FE9F
:1003000037E3FFFF37850640232E110013054574A0
:1003100033016100EF305676930601013727000064
:100320003307D700B7E7FFFFB307F700B7160000A2
:100330002326F100B386D7009305000003A707002A
:1003400093874700B385E500E39AD7FE732500B095
:100350000326C1008327C10003A707009387470036
:10036000B385E500E39AD7FE2320B60013064600C6
:10037000E312F6FE732600B03306A6409356F6410C
:10038000372300009396C600330161008320C1012A
:1003900093D6C600B386C6003785064093D646413D
:1003A0001305C571130101026F30D66737E3FFFFF4
:1003B000130101FE37850640232E11001305C57574
:1003C00033016100EF30566B732800B0372700000F
:1003D000930601013307D700B7E7FFFFB307F70024
:1003E0002326F100138507021386070093050000FA
:1003F000930607008327C10003A7070093874700E0
:10040000B385E500E39AD7FE2320B6001306460025
:10041000E312A6FE732600B0330606419356F6415A
:100420003723000093962601330161008320C10128
:1004300093D62601B386C6003785064093D6E6409C
:100440001305C571130101026F30D65D3765084091
:10045000130505CB6F00404D130101FF232611004A
:10046000EFF0DFBDB7950640379506409385C58907
:100470001305458AEF30165B37650840130585D2B2
:10048000EF00804A8320C100130500001301010121
:100490006780000037650840130505DB6F00C04822
:1004A000130101FF23261100EF3016578320C100EE
:1004B0001375F50F1301010167800000130101FF9F
:1004C00023248100232611001304050003450500A1
:1004D000630A050013041400EF3056590345040065
:1004E000E31A05FE8320C1000324810013010101EA
:1004F00067800000130515001315250067800000B4
:1005000093070500630AB5046304050463820504C8
:100510000326050003A7050013050000631CC7029E
:10052000635CC00213854700938545009307000074
:100530006F00C000938545006300F6028326050026
:1005400003A705009387170013054500E384E6FE23
:10055000130500006780000013051000678000008D
:100560009307000163EEA700B79706409387C7A2E1
:10057000131525003385A7000325050067800000BB
:10058000379506401305859867800000379506402B
:10059000130101FF130505A7232611002324810061
:1005A0002322910023202101EF30164D379506407C
:1005B000130585A8EFF09FA91304050037950640A1
:1005C000130505AAEFF09FA8930405000B08A400EB
:1005D00037990640930605009307080013070800A3
:1005E0001306040093050000130589ABEF30964312
:1005F0000B189400930510009307080013070800D8
:100600009386040013060400130589ABEF3096416E
:100610000B28940093052000930708001307080097
:100620009386040013060400130589ABEF30963F50
:100630000B38940093053000930708001307080057
:100640009386040013060400130589ABEF30963D32
:100650000B48940093054000930708001307080017
:100660009386040013060400130589ABEF30963B14
:100670000B589400930550009307080013070800D7
:100680009386040013060400130589ABEF309639F6
:100690000B68940093056000930708001307080097
:1006A0009386040013060400130589ABEF309637D8
:1006B0000B78940013060400032481008320C100FA
:1006C00093860400130589AB8324410003290100AC
:1006D0009305700093070800130708001301010138
:1006E0006F30563437950640130101FE130505B0EF
:1006F000232E1100232C8100232A9100232821017D
:100700002326310123244101EF3016373795064067
:100710001305C5B1B709010037890000B7140500FA
:10072000EF30963513040000379A06409389F9FF9D
:10073000130939109384E4A1334634018B06C400B5
:100740000B17C4008B27C4009305040013050AB5DA
:1007500033042401EF30162DE31094FE8320C101F1
:100760000324810183244101032901018329C1005C
:10077000032A81001301010267800000130101FABE
:1007800037950640232E7103232C8103130505B8EA
:10079000370C0100B70B100B232C8104232E1104FE
:1007A000232A9104232821052326310523244105EA
:1007B0002322510523206105232A91032328A10325
:1007C0002326B10313040000EF30162B130CFCFF9B
:1007D000232E0100938B3B230329C101372B17FFE5
:1007E000930D0000130B3B7F8B09B4010B1AB4016E
:1007F0008B2AB4019305000093860D0013060400B4
:1008000013050000EF00907C93860D001306040092
:1008100093050000930C050013051000EF00107BFA
:100820009304050093860D00130604009305000051
:1008300013052000EF009079B7970640130D0500CF
:1008400013091900138547BA6394990163049A0C3C
:10085000EF3096223795064013860D0093880A00E4
:100860001388040093070A0013870C00938609007D
:10087000930504002320A101130585BEEF30961ACD
:10088000B3778901B38D7D01638A0706E39E6DF519
:100890000327C101B7077100938757003304F400A1
:1008A00013071734B71722FF9387A7B4232EE1004D
:1008B000E314F4F2032481058320C1058324410558
:1008C0008329C104032A8104832A4104032B0104E0
:1008D000832BC103032C8103832C4103032D0103CC
:1008E000832DC102930509000329010537950640B0
:1008F000130585C5130101066F30D612B797064060
:1009000093050900138507C4EF30D611E39E6DED02
:100910006FF01FF8E39EAAF36FF09FF6376508406B
:10092000130585DE6F004000130101F8232A9106AC
:100930002328210723263107232441072322510797
:1009400023206107232E7105232C8105232E1106F8
:10095000232C8106232A910513090500930985009C
:10096000B79A0640379A0640B7940640379B064030
:10097000379C0640B79B06400325090013840900F5
:10098000EF30861013060500930C05009305D00385
:1009900013050100EF30860B83250900930701053D
:1009A000B38C9701130601001385CACD23880CFA76
:1009B000EF30560783458900638E05000326440007
:1009C0001385C4CE13040401EF30D605834504001B
:1009D000E39605FE8325490013054ACEEF309604C1
:1009E000EFF01FAC930C0500EF30560883478900E9
:1009F000638C070013840900638E97018347040109
:100A000013040401E39A07FE13058BCFEF30960120
:100A10006FF09FF61305A000EF3056058347C40022
:100A2000639207028325440013054CD0EF30867F84
:100A300083278400E780070013854BD1EF30D6036E
:100A40006FF09FF38320C1070324810783244107AC
:100A5000032901078329C106032A8106832A410647
:100A6000032B0106832BC105032C8105832C410533
:100A70001301010867800000130101F6232C81088F
:100A800037840740232A91072328A107232E110822
:100A9000232A9108232821092326310923244109E7
:100AA0002322510923206109232E7107232C81075A
:100AB0002326B1071304048A130D00002326010224
:100AC000B79C06406F004010232EF102B7970640F6
:100AD00093050D00138587D2232ED1052326C1034C
:100AE000232C7104232A51042328F1052326E10530
:100AF000232461042322110523200105232CE10274
:100B0000232AD1022328C102EF30C6718323810535
:100B100083224105832F0105032FC10403254102D0
:100B20000323810483284104032801048327C1038C
:100B3000032781038326410303260103B79506405B
:100B4000938585D4232A7100232851002326F1019F
:100B50002324E1012322A1002320610013850CD569
:100B6000EF30466C83278102832EC105032EC1021C
:100B7000B79506402326F10093080B0093070A005F
:100B8000232AD1012328C1012324B1012322810179
:100B90002320710113880A001387090093060900B6
:100BA000138604009385C5DC13850CD5EF3086676A
:100BB000930710002326F102130D1D009307C000B8
:100BC000130404016302FD0C03250400EF00960EDC
:100BD000B7970640138587D1EF30C664EF00D6156E
:100BE000EF00161383057500030605008304440017
:100BF0002322B1028305D4008306150003072500D4
:100C00002324B102830735000308450083085500FB
:100C100003036500030F8500830F95008302A50081
:100C20008303B5000309540083096400030A7400B8
:100C3000830A8400030B9400830BA400030CB4000C
:100C4000830DC400030EE400830EF400E31E96E659
:100C5000E39C26E7E39AE9E6E318FAE6E3960AE777
:100C6000E39468E7E3926BE683254102E31EBCE46C
:100C7000E39CEDE583258102E398BFE4E3165EE49F
:100C8000E394D3E56FF05FF38327C1026384070425
:100C900037950640130585DD032481098320C109AA
:100CA00083244109032901098329C108032A8108F2
:100CB000832A4108032B0108832BC107032C8107DA
:100CC000832C4107032D0107832DC1061301010A5F
:100CD0006F30865A37950640130545DF6FF0DFFB0E
:100CE00037950640130101FD130505E12326110286
:100CF000EF308658376507401305C537EF00867B10
:100D000037950640130585D1EF30C651EF00D60266
:100D1000EF0016008305B500830855000308450061
:100D20008307350003072500830615000306050029
:100D3000232AB1008305A5002328B100830595006F
:100D40002326B100830585002324B10083057500A7
:100D50002322B10003036500B7950640379506408E
:100D600023206100938505E2130505D5EF30864BFE
:100D70008320C102130101036780000037950640FC
:100D8000130101FD1305C5E223261102EF30C64E03
:100D9000377507401305050FEF00C67137950640FC
:100DA000130585D1EF300648EF000679EF0046764F
:100DB0008305B50083085500030845008307350007
:100DC000030725008306150003060500232AB1004A
:100DD0008305A5002328B100830595002326B100D3
:100DE000830585002324B100830575002322B1000B
:100DF00003036500B7950640379506402320610040
:100E0000938505E2130505D5EF30C6418320C10265
:100E1000130101036780000037950640130101FDAF
:100E2000130505E423261102EF3006453775074008
:100E3000130545F0EF00066837950640130585D188
:100E4000EF30463EEF00466FEF00866C8305B5003D
:100E50008308550003084500830735000307250074
:100E60008306150003060500232AB1008305A500AB
:100E70002328B100830595002326B1008305850052
:100E80002324B100830575002322B100030365000C
:100E9000B79506403795064023206100938505E20B
:100EA000130505D5EF3006388320C1021301010375
:100EB00067800000B767084083A587EA379506403A
:100EC000130101FF1305C50C23261100EF000634A2
:100ED0008320C10037650840130505E413010101B3
:100EE0006FF09FA437850740130101FF1305059696
:100EF00023261100EF3006333785074093050000A5
:100F00001305C596EF30063237850740930500007C
:100F10001305C597EF300631F32500B08320C100DB
:100F2000378507401305C598130101016F30862FDF
:100F300037850740B7670840130710001306000005
:100F4000930510001305C59923A8E7FE6F30862D81
:100F500037850740B7670840130600009305000077
:100F60001305C59923A807FE6F30C62BB767084045
:100F700083A507FF37850740130101FF1305859BF4
:100F800023261100EF30062A93070000739007B064
:100F90008320C1001301010167800000B76708408A
:100FA00083A507FF378507401305C59D6F3086274A
:100FB000B767084083A507FF378507401305459F9E
:100FC0006F304626130101FFB7470F00232611009B
:100FD00093870724130000009387F7FFE39C07FE25
:100FE000B7470F0093870724130000009387F7FF8C
:100FF000E39C07FEB7470F00938707241300000008
:101000009387F7FFE39C07FE3785074093050000B1
:101010001305C5A0EF300621378507409305000072
:10102000130585A2EF3006203785074093050000A1
:10103000130545A4EF30061F3785074093050000D0
:10104000130505A6EF30061E3785074093050000FF
:101050001305C5A7EF30061D37850740130585A981
:10106000EF30461C37850740930500001305C5A9DE
:10107000EF30461B8320C1003785074093050000F1
:10108000130505AD130101016F30C619130101FFEE
:10109000232481002322910023261100938405003C
:1010A0001304050063940504B79798009387F767C6
:1010B00063EEA702B72700009387F77063F6A708CF
:1010C0001305451FB33585001306803E93060000C7
:1010D000EF20960713060500378507409386050025
:1010E0001305C5B0EF3006146F00C00337A5070025
:1010F000130505123305A400B335850037460F00EC
:101100001306062493060000B3859500EF20D6034E
:10111000130605003785074093860500130545B083
:10112000EF30461013060400032481008320C10021
:101130009386040083244100378507401305C5B119
:10114000130101016F30060E1306050037850740B5
:1011500093060000130545B1EF30C60C6FF09FFCFD
:101160006780000037850740130585B26F30860B16
:10117000376508401305C5EA6FF00FFB13F6C5FF8E
:101180003306C500130700006306C50E37339ECC37
:10119000B738871B377854E6130313D5938838592B
:1011A000130848B68327050013054500B387670277
:1011B0009396F70093D71701B3E7D700B3871703C8
:1011C000B3C7E7001397D70093D73701B367F7008A
:1011D00013972700B307F70033870701E314A6FC32
:1011E000B3C7E50093F53500638C05049306100042
:1011F000034706006382D5028346160013052000CC
:10120000939686003307D7006388A500834626009F
:10121000939606013307D700B7369ECC938616D532
:101220003307D7029316F7001357170133E7E60089
:10123000B736871B938636593307D702B3C7E70003
:1012400013D70701B347F70037D7EB851307B7A6C6
:101250003387E70237B5B2C2130555E39357D7007A
:10126000B3C7E700B387A70213D507013345F500DD
:1012700067800000938705006FF0DFF6B7870740AF
:10128000130101D8938787CD232E1126232C812685
:10129000232A912623282127232631272324412767
:1012A0002322512723206127232E71251307410074
:1012B0009388472403A8070003A5470083A5870058
:1012C00003A6C70083A60701232007012322A70046
:1012D0002324B7002326C7002328D700938747017C
:1012E00013074701E39817FD83A6070083A747006C
:1012F000130481002320D7002322F7009304000069
:1013000093090000378B074037890740B78A0740A9
:10131000130AF0FFB78B07409385040013058BC4B5
:10132000EF2056708325440113050400EFF01FE5FC
:101330000326C4FF930605008325440113874ACA88
:101340001305C9C6638CC6041304C401EF20966D4F
:101350008327440193841400E39047FD37850740B9
:101360001386040093850900130505C5EF20966BCD
:101370008320C127032481278324412703290127B0
:101380008329C126032A8126832A4126032B01268D
:10139000832BC125130101286780000013878BC6AA
:1013A000138606001305C9C61304C401EF2096670F
:1013B000832744019389190093841400E39E47F521
:1013C0006FF0DFF937650840130545F46FF0CFD5AE
:1013D00067800000130101FC23244103374A0F00FA
:1013E0002326310323206103232E7101232C810145
:1013F000232A91012328A101232E1102232C8102EB
:10140000232A910223282103232251032326B101F9
:10141000930970FF130C1000378D0740B78B0740FE
:10142000B78C0740378B0740130A0A2493850900BD
:1014300013054DF237E9FFFFB79AF27FEF20965E72
:101440001309791C938AFA6E37A410801304F4BA36
:1014500093060400130609009305000013052000FD
:10146000EF00C036930405008B2D8900130604009D
:10147000930509001385CBF3638EB401EF20965AD0
:1014800013860D009385040013854CF6EF209659C2
:10149000130C00009386090013060000930500005A
:1014A00013054000EF00803293040500930D000007
:1014B0008BCD3D019385090013058BF8330444015E
:1014C000638EB401EF20165613860D009385040039
:1014D00013854CF6EF201655130C0000E31A54F751
:1014E000B73700001309E90193877781E31EF9F408
:1014F000938919009307C0FFE39AF9F263040C047F
:1015000037850740130545FB032481038320C1036E
:1015100083244103032901038329C102032A810291
:10152000832A4102032B0102832BC101032C810179
:10153000832C4101032D0101832DC10013010104FE
:101540006F209653378507401305C5FD6FF0DFFB0D
:10155000130101FD3767084023248102232611026D
:101560002322910223202103232E3101232C410128
:10157000232A51012328610123267101232481019B
:10158000130787FF83470700376408401304C40527
:1015900063900714B7050101938505102322B40257
:1015A0002324B40293051020930710009306101013
:1015B000130310082310B4049305F0022326B40487
:1015C0002310D4062318D4069305201023100400FA
:1015D0002322040023240400232604002318F400FB
:1015E000232A0400232C0400232E04002310F402D9
:1015F000232604022318F402232AF402232CF402E3
:10160000232E64022322F4042324F4042318040464
:10161000232A0404232C0404232E04042322040676
:101620002324040623260406232AF406232CF40686
:10163000232E64062310D4082326B40893053018FB
:10164000232EB408930540202326B40AB70500FBD7
:101650002318D4082310D40A2318D40A232CB40A3C
:101660002310D40C930540F82318D40C930600F8EB
:1016700037867F7F232EB40A232CD40CB7050200B3
:10168000B77601001306F6F793080010370801003B
:1016900037050001938585989386B6702322140937
:1016A00023241409232A0409232C04092322A40A2D
:1016B0002324A40A232A040A2322C40C2324C40CAE
:1016C0002326B40C232AC40C232ED40C2300F700A9
:1016D000130A040E930A100093091000130C200043
:1016E000B78B0740378B07408326840003264400CE
:1016F0008345140003450400EF00400D0346140029
:1017000083264400032784009304050063043609FC
:101710006306860983470400638607080B99E60081
:10172000631699008327C40063842703834504005C
:1017300013858B00930A0000EF20D62E8325C4006A
:10174000930609001386040013050B04EF20962D61
:1017500013040401E31A44F9638A0A043785074035
:101760001305C507032481028320C102832441029B
:10177000032901028329C101032A8101832A41012E
:10178000032B0101832BC100032C810013010103F2
:101790006F20962E0B99E6026FF09FF80B99E604E6
:1017A0006FF01FF80B89E6006FF09FF73785074051
:1017B0001305450A6FF01FFB376508401305C5F791
:1017C0006FF08F966780000067800000130820008C
:1017D00063020503930740006304F51093071000AC
:1017E0006300F506B767084023A007001305000053
:1017F0006780000037050040930700006342061829
:101800003385A600B336D500B307F600B387F600DC
:1018100013D7F74113171700135717003305A70005
:101820003337E5003307F700131717001355F50199
:101830003365A700B767084023A0A70067800000B2
:1018400093F71500638E070E93F525006382051448
:1018500013158601135585419307D5FA93558600D4
:101860001395860113D786001355854193958501FD
:101870003385A70293D58541931787019385D5FAC0
:1018800093D78741376708401307070003280700ED
:101890009308D0FAB385F50233050501B305B50009
:1018A0001355060113D806011315850113558541FB
:1018B0001318880133051501135888419357864141
:1018C00033050503B387170193D68641B386D70244
:1018D0003305B5003305D5002320A700678000003D
:1018E00037670840B306D04013070700938706FE0A
:1018F0000326070063C00708930700009387F7FFDC
:101900001355F60193D517403305B500B377F600AC
:101910003325F5003356D6403305C500130505F8C9
:10192000930700F86354F500130500F89307F007D8
:1019300063D4A7001305F0072320A70067800000E9
:1019400093F525006390050A9317860193D7874185
:10195000939686011385070893D68641B306D50270
:101960003767084013070700032507003385A600E3
:101970006FF09FFC93071000B397D7006FF01FF82C
:10198000370500C0130515009307F0FF6FF05FE700
:10199000935786009315860193D5854193978701C8
:1019A00013D58600139786011357874193D7874134
:1019B0009385050813158501B385E502938707080C
:1019C00013558541376708401307070003280700B0
:1019D000930800083385A702B3850501B305B50058
:1019E0006FF01FEC9317860193D7874113958601FB
:1019F0009387D7FA135585413385A7023767084087
:101A000013070700832707003305F5006FF0DFF2A7
:101A100003230500130101FC2324C1022326D10264
:101A20002328E102232AF102232C0103232E110390
:101A30008327830013068102232E11002326C10071
:101A4000E78007008320C1011301010467800000C3
:101A500083250500130101FC2326D1022328E1027E
:101A6000232AF102232C0103232E110383A78500CF
:101A7000930506001306C102232E11002326C10080
:101A8000E78007008320C101130101046780000083
:101A90001307F000636CA7103787074093172500E2
:101AA0001307C714B387E70083A707006780070001
:101AB0009307F00023A0F5001305000067800000E5
:101AC0009307000123A0F5001305000067800000C4
:101AD0009307100023A0F500678000009307A00083
:101AE00023A0F50013050000678000009307200085
:101AF00023A0F50013050000678000009307300065
:101B000023A0F50013050000678000009307400044
:101B100023A0F50013050000678000009307500024
:101B200023A0F50013050000678000009307600004
:101B300023A0F500130500006780000093077000E4
:101B400023A0F500130500006780000093078000C4
:101B500023A0F500130500006780000093079000A4
:101B600023A0F50013050000678000009307B00074
:101B700023A0F50013050000678000009307C00054
:101B800023A0F50013050000678000009307D00034
:101B900023A0F50013050000678000009307E00014
:101BA00023A0F5001305000067800000130101FF6A
:101BB000232611009307060023A00500B7850740E0
:101BC000130605009385851213850700EFF05FE487
:101BD0008320C1001305100013010101678000007C
:101BE000130500006780000003270600130101FFB2
:101BF0009307060003270700232481002322910076
:101C00001304050013064000138507002326110066
:101C10009305800093840600E700070083270400F3
:101C20001306A00023200500B307F44003D70700E4
:101C3000230205006372E60883D6A700638E0606BA
:101C4000B306D40003C606009306B0006316D6069A
:101C50009306C00063F2E60683D7C7003304F4009E
:101C6000638C070483270400130640001307100049
:101C70003304F40083270400B307F44083D607003D
:101C8000637AD60203D74700930500006314070464
:101C90002320B50013076000637AD70483D7670059
:101CA00013071000638807003304F400034704009F
:101CB0003337E0002302E5008320C10003248100C4
:101CC00023A0A40083244100130500001301010197
:101CD000678000003307E400830507001387F5FFE2
:101CE000E378E6FA930500006FF09FFA13071000FF
:101CF0002302E5006FF05FFC130500006780000021
:101D000083270600130101FE232A910083A7070001
:101D100093040600232C81002328210113040500CD
:101D20002326310123244101232E1100138A0500AB
:101D300013064000930540001385040093890600B4
:101D4000E7800700832704009306A00023200500F6
:101D5000B307F44003D707001309050063F2E60850
:101D600083D6A700638E0606B306D40003C606001A
:101D7000930680026316D6069306C00063F2E60659
:101D800083D7C7003304F400638C0704832704005F
:101D900013074000130500003304F40083270400F8
:101DA000B307F44083D607006376D70083D7470094
:101DB000639E070413060A0093050900EFF05FCD48
:101DC00013040500630E050083A7040093050900B2
:101DD0001385040083A74700E78007006F00C00059
:101DE00023A02901130400008320C101130504006E
:101DF0000324810183244101032901018329C100B6
:101E0000032A810013010102678000003304F400FB
:101E1000030504006FF01FFA83270600130101FE7B
:101E2000232A910083A7070093040600232C810036
:101E30002328210113040500232631012324410115
:101E4000232E1100138A050013064000930540005D
:101E50001385040093890600E780070083270400A8
:101E60009306A00023200500B307F44003D7070022
:101E70001309050063F2E60883D6A700638E060601
:101E8000B306D40003C60600930690036316D60675
:101E90009306C00063F2E60683D7C7003304F4005C
:101EA000638C070483270400130740001305000018
:101EB0003304F40083270400B307F44083D60700FB
:101EC0006376D70083D74700639E070413060A0092
:101ED00093050900EFF0DFBB13040500630E050056
:101EE00083A70400930509001385040083A7470016
:101EF000E78007006F00C00023A029011304000041
:101F00008320C101130504000324810183244101BE
:101F1000032901018329C100032A81001301010261
:101F2000678000003304F400030504006FF01FFA1B
:101F300013050000678000001305000067800000A3
:101F400003270600130101FF93070600032707007C
:101F5000232481002322910013040500232611006D
:101F60001385070013064000930540009384060084
:101F7000E7000700832704009306A0002320050044
:101F8000B307F44003D7070063F2E60683D6A70041
:101F9000638E0604B306D40003C6060093067006DB
:101FA0006316D6049306C00063F2E60483D7C70025
:101FB0003304F400638C0702832704009306400077
:101FC000130700003304F40083270400B307F44030
:101FD00003D6070063FAC60083D74700638607006D
:101FE0003304F400032704002320E5008320C1000C
:101FF0000324810023A0A4008324410013050000D2
:1020000013010101678000001305000067800000D4
:1020100003270600130101FF9307060003270700AB
:10202000232481002322910013040500130640009D
:102030001385070023261100930580009384060072
:10204000E7000700832704001306A00023200500F3
:10205000B307F44003D7070023220500637EE6069A
:1020600083D6A700638A0606B306D40083C606009B
:102070006394C6069306C00063F0E60683D7C700E4
:102080003304F400638A0704832704009306600086
:102090003304F40083270400B307F44003D7070098
:1020A00063FAE60403D76700630E07003307E40012
:1020B00003070700930640001306F7FF63E4C6001A
:1020C0002322E50083D74700638A07023304F40024
:1020D000832704002320F5008320C100032481000E
:1020E00023A0A40083244100130500001301010173
:1020F0006780000093064000E3E6E6FC93070000DB
:102100002320F5006FF05FFD03270600130101FF98
:102110009307060003270700232481002322910050
:102120001304050013064000138507002326110041
:102130009305800193840600E700070083270400CD
:102140001306A00023200500B307F44003D70700BF
:10215000232205002324050023260500232805004B
:10216000232A0500637AE60E03D6A7006306060E4F
:102170003306C4000346060093061000631ED60C07
:102180009306C00063FAE60C83D7C7003304F4005B
:102190006384070C83270400130740003304F40012
:1021A00083270400B307F44083D60700637CD70E6F
:1021B00003D6470093051000630E06003306C400E3
:1021C00003070600630807001307F7FF133717001C
:1021D000931517002320B50013076000637ED70214
:1021E00003D7670013060000631E070C2322C500F7
:1021F000130780006372D70203D78700130600001D
:10220000631C070A2324C5001307A0006376D700C8
:1022100003D7A70063100706130700002326E50075
:102220001307C0006378D70603D7C7001306100052
:10223000631E07062328C5001307E000637AD7084A
:1022400003D7E70093071000630607003304E40098
:1022500083270400232AF5008320C1000324810082
:1022600023A0A400832441001305000013010101F1
:10227000678000003307E4000307070013064000EF
:102280009305F7FFE36AB6F82326E5001307C000BD
:10229000E36CD7F8930710002328F500232AF500F4
:1022A0006FF09FFB2320C5006FF01FF73307E4009A
:1022B000032607006FF01FF83307E400032607002A
:1022C0006FF05FF43307E400032607006FF01FF29E
:1022D00093071000232AF5006FF01FF8032706006C
:1022E000130101FF93070600032707002324810041
:1022F0002322910013040500130610001385070024
:10230000232611009305200093840600E7000700B0
:10231000832704001306A00023000500B307F44040
:1023200003D70700A3000500637EE60683D6A70057
:10233000638A0606B306D40003C606009306600649
:102340006312D6069306C00063FEE60483D7C70077
:102350003304F400638807048327040093064000D5
:102360003304F40083270400B307F44003D70700C5
:1023700063F8E60403D647009306000063180604DA
:102380002300D5009306600063FCE60283D7670054
:10239000638807023304F40083470400B337F00076
:1023A000A300F5008320C1000324810023A0A40022
:1023B0008324410013050000130101016780000020
:1023C00093070000A300F5006FF0DFFD3306C400A3
:1023D00083460600B336D0006FF09FFA1305000065
:1023E0006780000003270600130101FF9307060022
:1023F00003270700232481002322910013040500F2
:1024000023261100138507001306400093054000A2
:1024100093840600E7000700832704009306A000CA
:1024200023200500B307F44003D7070063F2E60654
:1024300083D6A700638E0604B306D40003C6060045
:102440009306E0056316D6049306C00063F2E60423
:1024500083D7C7003304F400638C0702832704008A
:1024600093064000130700003304F40083270400A0
:10247000B307F44003D6070063FAC60083D74700CA
:10248000638607003304F400032704002320E500DB
:102490008320C1000324810023A0A40083244100E1
:1024A00013050000130101016780000003270600E7
:1024B000130101FF9307060003270700232481006F
:1024C0002322910013040500130640001385070022
:1024D000232611009305C00193840600E70007003E
:1024E000832704001306A00023200500B307F4404F
:1024F00003D7070023220500232405002326050017
:1025000023280500232A0500232C05006376E61006
:1025100003D6A700630206103306C4000346060074
:1025200093062000631AD60E9306C00063F6E60EEB
:1025300083D7C7003304F4006380070E83270400A9
:10254000130740003304F40083270400B307F4406A
:1025500083D607006378D71003D647009305100091
:10256000630E06003306C400030706006308070075
:102570001307F7FF13371700931517002320B50033
:1025800013076000637AD70403D7670013060000BF
:10259000631207102322C50013078000637ED70251
:1025A00003D78700130600006310070E2324C5001D
:1025B0001307A0006372D70203D7A7001306000019
:1025C000631E070A2326C5001307C0006376D700E1
:1025D00003D7C70063100706130700002328E50090
:1025E0001307E0006378D70603D7E700130610004F
:1025F00063100708232AC500130700016372D70A76
:1026000003D7070193071000630607003304E400B3
:1026100083270400232CF5008320C10003248100BC
:1026200023A0A4008324410013050000130101012D
:10263000678000003307E40003070700130640002B
:102640009305F7FFE36AB6F82328E5001307E000D7
:10265000E36CD7F893071000232AF500232CF5002C
:102660006FF09FFB130710002320E5006FF0DFF6EB
:102670003307E400032607006FF0DFF73307E400B9
:10268000032607006FF01FF43307E400032607005A
:102690006FF0DFF13307E400032607006FF09FEFD0
:1026A00093071000232CF5006FF01FF713050000AF
:1026B000678000001305000067800000130500001C
:1026C000678000001305000067800000130500000C
:1026D00067800000130500006780000013050000FC
:1026E00067800000130500006780000013050000EC
:1026F0006780000083270600130101FE23263101B5
:1027000083A7070093090600232C8100232A910048
:10271000130405002328210123244101232E110045
:10272000138A0500130640009305C00013850900B5
:1027300013890600E7800700832704009306A000A2
:1027400023200500B307F44003D707002322050028
:10275000231405009304050063F6E60A83D6A70058
:102760006382060AB306D40003C6060093068000FF
:10277000631AD6089306C00063F6E60883D7C7003D
:102780003304F40063800708032504009306400027
:102790003304A40083270400B307F44003D70700E1
:1027A00063F2E60A03D647009305000063100608AB
:1027B00023A0B4009306800063F6E60803D68700E2
:1027C00093060000631E06082384D4009306A0002D
:1027D00063FAE60083D6A70013070000639A060693
:1027E000A384E40083D76700638E07003304F400FA
:1027F000830704006388070013071000639AE70645
:1028000023A2F4008320C101032481012320990025
:102810008329C1008324410103290101032A810086
:102820001305000013010102678000003306C40095
:10283000830506001386F5FFE3FCC6F6930500004A
:102840006FF01FF793066000E3FEE6FA6FF09FF962
:10285000B306D40003C706003337E0006FF05FF81B
:102860003306C40083460600B336D0006FF0DFF5B0
:10287000B78507409385C51813050A00EFF04F99F7
:1028800083A70900138509009385040083A74700E7
:10289000E78007008320C1010324810183244101D3
:1028A000032901018329C100032A810013051000B7
:1028B000130101026780000013050000678000001B
:1028C000130500006780000013050000678000000A
:1028D00003270600130101FF9307060003270700E3
:1028E00023248100232291001304050023261100D4
:1028F00013850700130640009305400093840600EB
:10290000E7000700832704009306A00023200500AA
:10291000B307F44003D7070063F4E60683D6A700A5
:1029200063800606B306D40083C606001306C00003
:102930006398C60463F6E60483D7C7003304F40043
:1029400063800704832704009306400013070000F8
:102950003304F40083270400B307F44003D60700D0
:1029600063FEC60083D74700638A07003304F40080
:10297000030704009307F7FF63E2F6022320E50054
:102980008320C1000324810023A0A40083244100EC
:102990001305000013010101678000001307000008
:1029A0002320E5006FF0DFFD03270600130101FF80
:1029B00093070600032707002324810023229100A8
:1029C0001304050023261100138507001306400099
:1029D0009305400093840600E70007008327040066
:1029E000130700002320E500B307F44003D70700D6
:1029F0009306A00063F2E60683D6A700638E060462
:102A0000B306D40003C606009306B0046316D604CA
:102A10009306C00063F2E60483D7C7003304F400D2
:102A2000638C07028327040093064000130700000D
:102A30003304F40083270400B307F44003D60700EF
:102A400063FAC60083D74700638607003304F400A7
:102A5000032704002320E5008320C1000324810014
:102A600023A0A400832441001305000013010101E9
:102A70006780000013050000678000001305000058
:102A80006780000013050000678000001305000048
:102A90006780000013050000678000001305000038
:102AA0006780000013050000678000001305000028
:102AB0006780000013050000678000000327060000
:102AC000130101FF93070600032707002324810059
:102AD000232291001304050023261100138507000B
:102AE000130640009305400093840600E7000700AA
:102AF000832704009306A00023200500B307F440B9
:102B000003D7070063FAE60683D6A70063860606A6
:102B1000B306D40003C606009306D004631ED60491
:102B20009306C00063FAE60483D7C7003304F400B9
:102B300063840704832704009306400013071000F2
:102B40003304F40083270400B307F44003D60700DE
:102B500063F2C60283D74700638E07003304F40094
:102B600083070400638807001387F7FF13371700F4
:102B7000131717002320E5008320C10003248100E0
:102B800023A0A400832441001305000013010101C8
:102B90006780000003270600130101FF930706006A
:102BA000032707002324810023229100130405003A
:102BB00023261100138507001306400093054000EB
:102BC00093840600E7000700832704009306A00013
:102BD00023200500B307F44003D7070063F6E60699
:102BE00083D6A70063820606B306D40003C6060098
:102BF00093065001631AD6049306C00063F6E604F8
:102C000083D7C7003304F4006380070483270400DC
:102C100093064000130700003304F40083270400E8
:102C2000B307F44003D6070063FEC60083D747000E
:102C3000638A07003304F400030704009307F7FFD7
:102C400063E2F6022320E5008320C1000324810013
:102C500023A0A400832441001305000013010101F7
:102C600067800000130700002320E5006FF0DFFD00
:102C70001305000067800000130500006780000056
:102C800003270600130101FF93070600032707002F
:102C90002324810023229100130405002326110020
:102CA00013850700130640009305800093840600F7
:102CB000E7000700832704009306A00023200500F7
:102CC000B307F44003D707002322050063FCE606A0
:102CD00083D6A70063880606B306D40003C60600A1
:102CE0009306B0036310D6069306C00063FCE604A7
:102CF00083D7C7003304F4006386070483270400E6
:102D0000930640003304F40083270400B307F44023
:102D100003D7070063F6E60483D6470013060000D6
:102D2000639606042320C5009306600063FAE6025A
:102D300083D76700638607023304F4008327040007
:102D40002322F5008320C1000324810023A0A400D6
:102D50008324410013050000130101016780000076
:102D6000930700002322F5006FF0DFFDB306D400C7
:102D700003A606006FF01FFB13050000678000002C
:102D8000130500006780000003270600130101FF00
:102D900093070600032707002324810023229100C4
:102DA00013040500130640001385070023261100B5
:102DB0009305800293840600E70007008327040040
:102DC0001306A00023200500B307F44003D7070033
:102DD00023220500232405002326050023280500BF
:102DE000232A0500232C0500232E0500232005029D
:102DF00023220502637EE60E03D6A700630A060EB1
:102E00003306C40003460600930650006312D60E34
:102E10009306C00063FEE60C83D7C7003304F400BA
:102E20006388070C83270400130740003304F40071
:102E300083270400B307F44083D607006378D70CD8
:102E400003D7470013061000630E07003307E400A2
:102E500003070700630807001307F7FF133717007E
:102E6000131617002320C500130760006374D70AE8
:102E700003D76700130600006316070C2322C50062
:102E8000130780006378D70803D787001306000074
:102E90006314070A2324C5001307A000637CD70628
:102EA00003D7A70013060000631207082326C500F6
:102EB0001307C0006370D70603D7C70013060000CE
:102EC000631007062328C5001307E0006374D704C6
:102ED00083D7E700638007043304F400830704000A
:102EE000130740009386F7FF6366D702232AF50095
:102EF0008320C1000324810023A0A4008324410077
:102F00001305000013010101678000009307100002
:102F10002320F50093070000232AF5006FF05FFDE2
:102F20003307E400032607006FF0DFF93307E400FE
:102F3000032607006FF09FF73307E400032607001E
:102F40006FF05FF53307E400032607006FF01FF30F
:102F50001305000067800000130500006780000073
:102F6000130500006780000003270600130101FF1E
:102F700093070600032707002324810023229100E2
:102F80001304050023261100138507001306100003
:102F90009305100093840600E700070083270400D0
:102FA0009306A00023000500B307F44003D70700F1
:102FB00063F4E60683D6A70063800606B306D40052
:102FC00003C606009306B0016318D6049306C0003A
:102FD00063F4E60483D7C7003304F400638E07026A
:102FE0008327040093064000130700003304F40015
:102FF00083270400B307F44003D6070063FCC60030
:1030000083D74700638807003304F40003470400B4
:103010003337E0002300E5008320C1000324810052
:1030200023A0A40083244100130500001301010123
:103030006780000013050000678000001305000092
:103040006780000083270600130101FE232631015B
:1030500083A7070093090600232C8100232A9100EF
:10306000232821019304050023244101232E11006C
:10307000138A0500130640009305400213850900DA
:1030800013890600E780070083A704009306A000C9
:1030900023200500B387F44003D70700232205004F
:1030A000232405002326050023280500232A0500E4
:1030B000232C0500232E0500232005021304050000
:1030C00063F6E60E83D6A7006382060EB386D400AD
:1030D00003C6060093061001631AD60C9306C000BF
:1030E00063F6E60C83D7C700B384F4006380070C53
:1030F00083A7040013074000B384F40083A70400EF
:10310000B387F44083D607006372D70A83D747009A
:10311000638E0708B384F40083A7040013078000BC
:10312000B384F40083A704006366F70A638E07067E
:1031300083A64400130710002320D5006386E7060A
:1031400083A68400130720002322D500638EE704A2
:1031500083A6C400130730002324D5006386E70448
:1031600083A60401130740002326D500638EE702DF
:1031700083A64401130750002328D5006386E70285
:1031800083A6840113076000232AD500638EE7001D
:1031900083A6C40113077000232CD5006386E700C3
:1031A00003A70402232EE5002320F4022320890034
:1031B0008320C101032481018324410103290101EA
:1031C0008329C100032A81001305000013010102B5
:1031D0006780000037860740B78507401306861BC7
:1031E0009385051C13050A00EFE09F8283A7090061
:1031F000138509009305040083A74700E7800700B3
:103200008320C10103248101832441010329010199
:103210008329C100032A8100130510001301010254
:103220006780000003270600130101FF93070600D3
:1032300003270700232481002322910013040500A3
:1032400013061000138507002326110093052000A4
:1032500093840600E7000700832704001306A000FC
:1032600023000500B307F44003D70700A3000500BF
:10327000637EE60683D6A700638A0606B306D400FB
:1032800003C606009306F0006312D6069306C0003C
:1032900063FEE60483D7C7003304F40063880704A1
:1032A00083270400930680003304F400832704007E
:1032B000B307F44003D7070063F8E60403D687009A
:1032C00093060000631806042300D5009306A000AF
:1032D00063FCE60283D7A700638807023304F40087
:1032E00083470400B337F000A300F5008320C1003A
:1032F0000324810023A0A4008324410013050000BF
:10330000130101016780000093070000A300F5008E
:103310006FF0DFFD3306C40083460600B336D000ED
:103320006FF09FFA03270600130101FF93070600C1
:1033300003270700232481002322910013040500A2
:1033400013061000138507002326110093052000A3
:1033500093840600E7000700832704001306A000FB
:1033600023000500B307F44003D70700A3000500BE
:10337000637EE60683D6A700638A0606B306D400FA
:1033800003C606009306A0046312D6069306C00087
:1033900063FEE60483D7C7003304F40063880704A0
:1033A00083270400930640003304F40083270400BD
:1033B000B307F44003D7070063F8E60403D64700D9
:1033C00093060000631806042300D50093066000EE
:1033D00063FCE60283D76700638807023304F400C6
:1033E00083470400B337F000A300F5008320C10039
:1033F0000324810023A0A4008324410013050000BE
:10340000130101016780000093070000A300F5008D
:103410006FF0DFFD3306C40083460600B336D000EC
:103420006FF09FFA1305000067800000130500008D
:103430006780000083270600130101FE232A910004
:1034400083A7070093040600232C81002328210171
:10345000130405002326310123244101232E1100EA
:10346000138A0500130640009305400013850400ED
:1034700093890600E7800700832704009306A000D5
:1034800023200500B307F44003D707001309050004
:1034900063F2E60883D6A700638E0606B306D4005F
:1034A00003C60600930670036316D6069306C00093
:1034B00063F2E60683D7C7003304F400638C070485
:1034C0008327040013074000130500003304F400B1
:1034D00083270400B307F44083D607006376D70040
:1034E00083D74700639E070413060A00930509006B
:1034F000EFE00FDA13040500630E050083A7040054
:10350000930509001385040083A74700E78007009F
:103510006F00C00023A02901130400008320C10113
:1035200013050400032481018324410103290101BF
:103530008329C100032A8100130101026780000072
:103540003304F400030504006FF01FFA13050000B4
:103550006780000003270600130101FF93070600A0
:103560000327070023248100232291001304050070
:103570002326110013850700130640009305400021
:1035800093840600E7000700832704001307000068
:103590002320E500B307F44003D707009306A000FB
:1035A00063F2E60683D6A700638E0604B306D40052
:1035B00003C60600930690006316D6049306C00067
:1035C00063F2E60483D7C7003304F400638C070278
:1035D0008327040093064000130700003304F4001F
:1035E00083270400B307F44003D6070063FAC6003C
:1035F00083D74700638607003304F40003270400E1
:103600002320E5008320C1000324810023A0A4001F
:1036100083244100130500001301010167800000AD
:10362000130500006780000003270600130101FF57
:10363000930706000327070023248100232291001B
:10364000130405002326110013850700130640000C
:103650009305400093840600E700070083270400D9
:103660009306A00023200500B307F44003D707000A
:1036700063F2E60683D6A700638E0604B306D40081
:1036800003C60600930630016316D6049306C000F5
:1036900063F2E60483D7C7003304F400638C0702A7
:1036A0008327040093064000130700003304F4004E
:1036B00083270400B307F44003D6070063FAC6006B
:1036C00083D74700638607003304F4000327040010
:1036D0002320E5008320C1000324810023A0A4004F
:1036E00083244100130500001301010167800000DD
:1036F00003270600130101FF9307060003270700B5
:1037000023248100232291001304050023261100A5
:1037100013850700130640009305400093840600BC
:10372000E7000700832704009306A000232005007C
:10373000B307F44003D7070063F2E60683D6A70079
:10374000638E0604B306D40003C606009306300257
:103750006316D6049306C00063F2E60483D7C7005D
:103760003304F400638C07028327040093064000AF
:10377000130700003304F40083270400B307F44068
:1037800003D6070063FAC60083D7470063860700A5
:103790003304F400032704002320E5008320C10044
:1037A0000324810023A0A40083244100130500000A
:1037B000130101016780000003270600130101FFC8
:1037C000930706000327070023248100232291008A
:1037D000130405002326110013850700130640007B
:1037E0009305400093840600E70007008327040048
:1037F0009306A00023200500B307F44003D7070079
:1038000063F2E60683D6A700638E0604B306D400EF
:1038100003C606009306F0046316D6049306C000A0
:1038200063F2E60483D7C7003304F400638C070215
:103830008327040093064000130700003304F400BC
:1038400083270400B307F44003D6070063FAC600D9
:1038500083D74700638607003304F400032704007E
:103860002320E5008320C1000324810023A0A400BD
:10387000832441001305000013010101678000004B
:1038800083270600130101FE2326310183A70700C9
:1038900093090600232C8100232A9100232821016B
:1038A0009304050023244101232E1100138A0500EF
:1038B0001306400093054002138509001389060092
:1038C000E780070083A704009306A00023200500DB
:1038D000B387F44003D70700232205002324050003
:1038E0002326050023280500232A0500232C050094
:1038F000232E0500232005021304050063F6E60EBF
:1039000083D6A7006382060EB386D40003C60600E2
:103910009306E001631AD60C9306C00063F6E60C2A
:1039200083D7C700B384F4006380070C83A7040027
:1039300013074000B384F40083A70400B387F44066
:1039400083D607006372D70A83D74700638E0708C0
:10395000B384F40083A7040013078000B384F40049
:1039600083A704006366F70A638E070683A64400F4
:10397000130710002320D5006386E70683A6840082
:10398000130720002322D500638EE70483A6C4001A
:10399000130730002324D5006386E70483A60401BF
:1039A000130740002326D500638EE70283A6440157
:1039B000130750002328D5006386E70283A68401FD
:1039C00013076000232AD500638EE70083A6C40195
:1039D00013077000232CD5006386E70003A70402B9
:1039E000232EE5002320F402232089008320C10137
:1039F0000324810183244101032901018329C1009A
:103A0000032A8100130500001301010267800000F2
:103A100037860740B7850740130646209385051C67
:103A200013050A00EFD0DFFE83A709001385090004
:103A30009305040083A74700E78007008320C101A6
:103A40000324810183244101032901018329C10049
:103A5000032A810013051000130101026780000092
:103A60001305000067800000130500006780000058
:103A700003270600130101FF930706000327070031
:103A80002324810023229100130405001306400023
:103A90001385070023261100930540019384060037
:103AA000E7000700832704001306A0002320050079
:103AB000B307F44003D707002322050023240500A1
:103AC00023260500232805006370E60C83D6A70093
:103AD000638C060AB306D40003C6060093060002F0
:103AE0006314D60A9306C00063F0E60A83D7C700C2
:103AF0003304F400638A0708832704009306400018
:103B00003304F40083270400B307F44003D707000D
:103B100063FAE60883D6470013060000639C060A92
:103B20002320C5009306600063FEE60683D6670087
:103B300013060000639A06082322C500930680003E
:103B400063F2E60683D68700130600006398060634
:103B50002324C5009306A00063F6E60483D6A700DD
:103B600013060000639606042326C5009306C000D2
:103B700063FAE60283D7C700638607023304F400C2
:103B8000832704002328F5008320C100032481003B
:103B900023A0A400832441001305000013010101A8
:103BA00067800000930700002328F5006FF0DFFD19
:103BB000B306D40003A606006FF01FFBB306D400C3
:103BC00003A606006FF0DFF8B306D40003A60600D4
:103BD0006FF09FF6B306D40003A606006FF05FF403
:103BE00003270600130101FF9307060003270700C0
:103BF00023248100232291001304050013064000B2
:103C00001385070023261100930580009384060086
:103C1000E7000700832704001306A0002320050007
:103C2000B307F44003D70700230205006372E608D8
:103C300083D6A700638E0606B306D40003C606002B
:103C40009306C0016316D6069306C00063F2E6062B
:103C500083D7C7003304F400638C07048327040070
:103C600013064000130710003304F40083270400F8
:103C7000B307F44083D60700637AD60203D7470020
:103C800093050000631407042320B50013076000A8
:103C9000637AD70483D7670013071000638807008F
:103CA0003304F400034704003337E0002302E50047
:103CB0008320C1000324810023A0A40083244100A9
:103CC0001305000013010101678000003307E400C1
:103CD000830507001387F5FFE378E6FA93050000F4
:103CE0006FF09FFA130710002302E5006FF05FFCEE
:103CF00003270600130101FF9307060003270700AF
:103D000023248100232291001304050013064000A0
:103D100013850700232611009305C0009384060035
:103D2000E7000700832704001306A00023200500F6
:103D3000B307F44003D7070023220500230405003E
:103D4000637AE60883D6A70063860608B306D40024
:103D500003C6060093066000631ED6069306C000E5
:103D600063FAE60683D7C7003304F40063840706CA
:103D700083270400930640003304F40083270400E3
:103D8000B307F44003D7070063F4E60683D6470081
:103D900013060000639206082320C5009306600006
:103DA00063F8E60683D667001306000063980604EE
:103DB0002322C5009306800063FCE60283D78700B8
:103DC000638807023304F40083470400B337F0002C
:103DD0002304F5008320C1000324810023A0A40054
:103DE00083244100130500001301010167800000D6
:103DF000930700002304F5006FF0DFFDB306D40045
:103E000003860600930640009305F6FFE3F2B6FA38
:103E1000130600006FF0DFF9B306D40003A6060016
:103E20006FF09FF713050000678000001305000086
:103E30006780000003270600130101FF93070600B7
:103E40000327070023248100232291001304050087
:103E50001306400013850700232611009305C000B8
:103E600093840600E7000700832704001306A000E0
:103E700023200500B307F44003D7070023220500E1
:103E8000232405006374E60A83D6A7006380060A2C
:103E9000B306D40003C60600930610036318D608C1
:103EA0009306C00063F4E60883D7C7003304F40028
:103EB000638E070683270400930640003304F40052
:103EC00083270400B307F44003D7070063FEE60628
:103ED00003D6470093051000630E06003306C400A6
:103EE00083060600638806009386F6FF93B61600E5
:103EF000939516002320B5009306600063FAE6044C
:103F000083D6670013060000639A06042322C500C7
:103F10009306800063FEE60283D78700638A070268
:103F20003304F400832704002324F5008320C10018
:103F30000324810023A0A400832441001305000072
:103F40001301010167800000930710002320F50092
:103F5000930700002324F5006FF05FFDB306D40043
:103F600003A606006FF09FFA03270600130101FF66
:103F700093070600032707002324810023229100D2
:103F800013040500232611001385070013064000C3
:103F90009305800093840600E70007008327040050
:103FA0009306A00023200500B307F44003D70700C1
:103FB0002322050063FCE60683D6A7006388060675
:103FC000B306D40003C60600930600046310D606A9
:103FD0009306C00063FCE60483D7C7003304F400F3
:103FE0006386070483270400930640003304F4002B
:103FF00083270400B307F44003D7070063F6E60401
:1040000083D6470013060000639606042320C500EC
:104010009306600063FAE60283D7670063860702AF
:104020003304F400832704002322F5008320C10019
:104030000324810023A0A400832441001305000071
:104040001301010167800000930700002322F5009F
:104050006FF0DFFDB306D40003A606006FF01FFB70
:1040600003270600130101FF93070600032707003B
:10407000232481002322910013040500130640002D
:104080001385070023261100930580009384060002
:10409000E7000700832704001306A0002320050083
:1040A000B307F44003D70700232205006376E60830
:1040B00083D6A70063820608B306D40003C60600B1
:1040C0009306F006631AD6069306C00063F6E6066A
:1040D00083D7C7003304F4006380070683270400F6
:1040E000130740003304F40083270400B307F440AF
:1040F00083D607006372D70403D74700630C070019
:104100003307E400032607003307C70013074700FF
:104110002320E500130760006370D70283D7670090
:10412000638C07003304F400832704003304F40095
:1041300013044400232285008320C100032481004E
:1041400023A0A400832441001305000013010101F2
:1041500067800000130101FE232C8100232A9100B7
:104160002328210123263101232441012322510147
:10417000232E110023A00600930405009389050057
:1041800013890600130A0600EFC0157A83A70400FE
:104190009305800013040500B387F44003D707009C
:1041A000930A100063F6E50083D687006390060645
:1041B0009305600963C4850693060002630ED40666
:1041C00083A7090013860A009305040083A707004C
:1041D00013850900E7800700930705002320A90045
:1041E000130500006386070A8320C10103248101AF
:1041F00083244101032901018329C100032A81008D
:10420000832A41001301010267800000B386D400B5
:104210009305600983AA0600E3D085FAB7850740B5
:10422000130604009385C52013050A00EFD04FFE46
:10423000130510006FF05FFB9306600063FEE6025B
:1042400083D56700638A050283A70900B384B4009D
:1042500083A5040083A7470013860A00B385B40032
:104260009385450013850900E78007002320A900F6
:10427000133515006FF05FF7B7850740938545301C
:1042800013050A00EFD0CFF8130510006FF0DFF52B
:10429000634A0402B795074013142400938505A3CD
:1042A0003304B40003260400B785074093860A0050
:1042B0009385052613050A00EFD08FF5130510002E
:1042C0006FF09FF237860640130606706FF0DFFD31
:1042D000130101FE232C8100232A91001384060080
:1042E0009304060093060000130600002328210112
:1042F00023263101232E110093090500138905009F
:10430000EFD0D50F6314050223A004008320C10160
:104310002320040003248101832441010329010196
:104320008329C10013010102678000001306040005
:104330001385090093050900EF10C678B7370840C8
:1043400003A6075C83A6475CEFE0952BEF204607AA
:10435000EFE0C5426340B006638A0504370700807A
:1043600083270400630AE502130710FE63D6E70003
:1043700023200400130500008320C10103248101D0
:1043800023A0A40003290101832441018329C10042
:104390001301010267800000E39805FC9387170072
:1043A0002320F400370500406FF01FFCB7070080A2
:1043B000E3F6A7FAEFF0057A130101FDB7370840DD
:1043C00023202103232E31011389060093090600BF
:1043D00083A6C75C03A6875C232481022322910263
:1043E000232611029304050013840500EFD0550124
:1043F00063580508138504009305040013060000A4
:1044000093060000EFD05500635CA0061306C100C0
:104410001385040093050400EF10C66AB7370840FF
:1044200003A6075C83A6475CEFE0951DEF10567965
:10443000EFE0C5346346B0046380050637070080AB
:104440008327C1006300E504130710FE63D6E7026B
:1044500023A00900930700008320C10203248102E6
:104460002320F90083244102032901028329C10189
:10447000130101036780000023A0A900E35EF0FCA4
:10448000EFF0456DE39205FC938717002326F100BA
:10449000370500406FF05FFBB7070080E3F0A7FA35
:1044A0006FF01FFE130101FD23286101130B0500AE
:1044B000370500803355E5002326110223248102AD
:1044C0002322910223202103232E3101232C410199
:1044D00093890700232A510123267101138A0500BD
:1044E000938A060093040800930B0600EFF0050D75
:1044F000130905001384050093860A0013860B0038
:1045000093050A0013050B00EFE0950F1306050055
:10451000938605001305090093050400EFE0550E8E
:10452000B737084003A9C75E03AA875E930A050050
:104530009306090013060A0013840500EFD0C56C2A
:104540006346A006B737084003A6875C83A6C75C0E
:1045500013850A0093050400EFD0056B6352A00A8F
:1045600013850A009305040013060000930600005B
:10457000EFD0C5686310050423A0090023A0040040
:104580008320C10203248102832441020329010202
:104590008329C101032A8101832A4101032B0101DF
:1045A000832BC1001301010367800000930A0A00F6
:1045B000130409001386040013850A009305040000
:1045C000EF104650B737084003A6075C83A6475C48
:1045D000EFE01503EF10D65EEFE0451A6342B0023C
:1045E000638205043707008083A704006302E502A5
:1045F000130710FE63C8E70023A0A900E3D207F861
:10460000EFF0455523A0040023A009006FF05FF7E9
:10461000E39005FE9387170023A0F40037050040C0
:104620006FF01FFDB7070080E3FEA7FA6FF05FFD94
:10463000130101FE232A9100930410002328210175
:10464000130905003395A4001305F5FF232C810001
:104650002326310113040600232E1100938905003F
:10466000EFE0D57533062441930706FE13090500D4
:104670001384050063CE0706B395F400130500000C
:10468000EFF04504130605009386050013050900A5
:1046900093050400EFE0C576938709FE93040500B7
:1046A0001384050063CC070493051000B395F5004F
:1046B00013050000EFF005011306050093860500C1
:1046C0001385040093050400EFE01534EF108624F1
:1046D000EFF0C5048320C10103248101832441013B
:1046E000032901018329C100130101026780000031
:1046F000930500003395C4006FF09FF81305100078
:1047000093050000331535016FF0DFFA83A705002C
:1047100083A6070093874700634E0602635CD602B8
:10472000131626003386C7008325060063C40502DE
:1047300083278500638C0700139525003305B5009A
:10474000131535003385A700678000008327050512
:1047500067800700130500006780000083A505003F
:10476000130101FF232611002324810003A8050063
:104770009307060013070500634806046356060501
:1047800093172600B387F50083A547009307F0FF32
:10479000638AF5068327850013840600638E070469
:1047A000139525003305B500131535003385A70093
:1047B0002320A4008320C1000324810013050000EE
:1047C000130101016780000083284701B795074066
:1047D000130507009306080013860700938505C993
:1047E000E78008008320C100032481001305100026
:1047F000130101016780000083270505E78007009A
:104800006FF01FFB83274501B79507409385C5CB04
:10481000E78007008320C1000324810013051000F6
:10482000130101016780000083A7450083A60700EC
:1048300093874700634E0602635CD6021316260078
:104840003386C7008325060063C4050283278500DD
:10485000638C0700139525003305B500131535004B
:104860003385A70067800000832705056780070060
:10487000130500006780000083A54500130101FFB8
:10488000232611002324810003A8050093070600B6
:1048900013070500634806046356060593172600B0
:1048A000B387F50083A547009307F0FF638AF506F9
:1048B0008327850013840600638E07041395250063
:1048C0003305B500131535003385A7002320A40058
:1048D0008320C1000324810013050000130101019E
:1048E0006780000083284701B7950740130507003C
:1048F0009306080013860700938505C9E780080022
:104900008320C1000324810013051000130101015D
:104910006780000083270505E78007006FF01FFB15
:1049200083274501B79507409385C5CBE7800700EE
:104930008320C1000324810013051000130101012D
:104940006780000083A7050083A6070093874700C0
:10495000634E0602635CD602131626003386C70038
:104960008325060063C4050283278500638C070046
:10497000139525003305B500131535003385A700C1
:104980006780000083270505678007001305000086
:1049900067800000130101FD23229102232E3101C3
:1049A000232C4101232A51012328610123261102CE
:1049B00023248102232021032326710183AA850059
:1049C000032B86009309050093040700138A070050
:1049D000638A060813850A0013840600EF30D62385
:1049E000930B050013050B0013890500EF30D62249
:1049F000130605009386050013850B009305090037
:104A0000EFE0054013090500032584001384050029
:104A1000EF30962013060500938605001305090064
:104A200093050400EFE045341309050003A5840055
:104A30001394150013541400EF30161E13060500CE
:104A4000938605001305090093050400EFE0C57B7C
:104A5000B737084003A6875F83A6C75FEFD0C503BB
:104A60006344A00893050B0013850A00EFD00540AE
:104A70009305000013040500EFC01578634E050888
:104A800013050400EF3056199307050003A58400B1
:104A90001384050093840700EF30161813060500F1
:104AA000938605001385040093050400EFE0C575A7
:104AB0002320AA002322BA00130500008320C1028C
:104AC0000324810283244102032901028329C101B5
:104AD000032A8101832A4101032B0101832BC10099
:104AE000130101036780000083A74901379707403E
:104AF000130707CF9306E01337960740B795074093
:104B000013850900130646D1938505D4E780070075
:104B1000130510006FF09FFA3797074083A74901EC
:104B2000130787D59306B0146FF01FFD8327C601C6
:104B3000130101FD2324810223229102232021035A
:104B4000232E310123261102232C4101232A510156
:104B5000232861012326710123248101232291014D
:104B60001308300093040500138405001389060020
:104B70009309070063820713130790006382E70A13
:104B8000130770006390E704378A0000130AFAFFE6
:104B9000B78AFFFF93071000032B8600832BC60004
:104BA000630CF40893073000630EF40E93072000A3
:104BB0006300F41A2320590123A0490113050000C2
:104BC0006F00C0028327450137970740379607409B
:104BD000B7950740130747D793061019130646D118
:104BE000938505D4E7800700130510008320C102D8
:104BF0000324810283244102032901028329C10184
:104C0000032A8101832A4101032B0101832BC10067
:104C1000032C8100832C41001301010367800000F5
:104C200093071000032B8600832BC600130AF0079E
:104C3000930A00F8E318F4F693050B00130500003F
:104C4000EFD00544EF30467DEF108677EF30960ABF
:104C5000B737084083A50760130B0500EFC0D5598F
:104C600063400518B737084083A5476013050B005C
:104C7000EFC095526346A01613050B00EFD05528E0
:104C8000B30B750163C65B192320790123A0490189
:104C9000130500006FF09FF5130AF00F930A000050
:104CA0006FF05FEF93050B0013050000EFD0453D5B
:104CB000EF308676EF10C670EF30D60337340840F9
:104CC00083250460130C0500EFC015536344050CE5
:104CD000B73C084083A54C6013050C00EFC0D54BD2
:104CE000634AA00A13050C00EFD09521B3077501A4
:104CF00063C8571337370840032587602320F9001E
:104D000093050B00EFD0C537EF300671EF10466BFF
:104D1000EF30467E8325046013040500EFC0D54DB7
:104D2000634A050683A54C6013050400EFC0D54611
:104D30006342A00613050400EFD0951CB30B750168
:104D4000634C7A0D23A07901130500006FF01FEA70
:104D5000B737084003A5C76093050B0037340840F8
:104D6000EFD00532EF30466BEF108665EF30867876
:104D700083250460130C0500EFC01548634C050043
:104D8000B73C084083A54C6013050C00EFC0D5402C
:104D9000635AA00283A7440137970740379607401C
:104DA000B7950740138504001307C7D793069015DE
:104DB000130646D1938505D4E7800700130510003C
:104DC0006FF0DFE213050C00EFD09513B307750108
:104DD00063CC570537370840032507616FF01FF292
:104DE00083A744013797074037960740B795074098
:104DF000138504001307C7D793069015130646D1F1
:104E0000938505D4E7800700130504006FF01FDECB
:104E1000938B0A006FF05FE7930B0A006FF09FF22D
:104E200093870A006FF01FED93870A006FF09FFAD7
:104E3000130101F803230108232E710583AB05003C
:104E4000232A9106232631072322510723206107B5
:104E5000232C8105232A910593840500232E110616
:104E6000232C810623282107232441072328A10579
:104E70002326B10593051000232661002328D100C5
:104E80002324F100232A0101232C1101032B4108C3
:104E9000832C8108032CC108832A0109930905008A
:104EA000638EBB0603234501B7970740379707403A
:104EB00037960740B795074013880B0093081000FA
:104EC000938747DA130707DC9306A00D130646D134
:104ED0009385C5DDE7000300930B10008320C10715
:104EE0000324810783244107032901078329C1067D
:104EF000032A8106832A4106032B0106032C810520
:104F0000832C4105032D0105832DC10413850B005E
:104F1000832BC1051301010867800000032A0600E6
:104F200013090600630E7A0303234501B797074070
:104F3000379707409308100013080A00938747DA51
:104F4000130787DF9306C00D37960740B7950740D4
:104F5000130646D19385C5DDE70003006FF01FF807
:104F600013040700032746006302071C832707007A
:104F70006382071803A8070063D60B0783A6C40142
:104F8000938696FF93F6D6FF638606028327450134
:104F900037970740130747E49306C00E379607403C
:104FA000B7950740130646D1938505D4E7800700DF
:104FB0006FF0DFF28326C601930590006396B61466
:104FC00063800A19B79707403797074003234501C5
:104FD00093880A00938707E9130707EA9306F00E00
:104FE0006FF09FF603A58400832B8400635A500959
:104FF000232EF100EF304642930D050013850B0080
:105000002324B1032326B102EF3006418327C101D7
:10501000938D0C00130D0C002320A1022322B1025A
:10502000930C0000130CC103930B810303A54700ED
:10503000232EF100938D4D00EF30063E03268102B2
:105040008326C102130D4D00938C1C00EFD0555BDD
:105050000326010283264102EFE0051B93060C00A4
:1050600013860B00EFF0CFA6832681038327C101AF
:1050700023AEDDFE8326C103232EDDFEE3C85CFBE9
:1050800083A7C401130730006388E7181307900053
:105090006388E70013077000930B0000E390E7E4D8
:1050A0008327810013060400032481078326C1009F
:1050B0008320C1078324410703290107032A8106AE
:1050C000832A4106832BC105032C8105832C4105CE
:1050D000032D0105832DC10483A5070013070B00D1
:1050E00013850900032B01068329C106130101085A
:1050F0006FF0DFA33797074083274501130787E247
:105100009306800E6FF09FE9B7B7074037970740C7
:105110001388060003234501930890009387877442
:10512000130707E89306E00E6FF01FE2379707407A
:1051300083274501130747E19306700E6FF01FE6C2
:105140008326870003274601939626003307D7005E
:105150008328470063821A03B797074037970740B1
:105160000323450113880A00938747EC130707E9D7
:105170009306000F6FF05FDD03A58400938747005F
:10518000232EF100EF304629130705000325840084
:105190002320E1022322B102EF3006288327C10138
:1051A000938D0C00130D0C002324A1022326B102C1
:1051B000930C0000130CC103930B810303A507009C
:1051C00093874700232EF100EF30062503260102C6
:1051D00083264102938D4D00938C1C00EFD05542E5
:1051E000032681028326C102130D4D00EFE0C501A5
:1051F00093060C0013860B00EFF08F8D832681033E
:105200008327C10123AEDDFE8326C103232EDDFEED
:10521000E3C65CFB6FF0DFE6832C89000329010104
:1052200003AC84006308090813050C00EF30C61EA8
:10523000130D050013850C00938B0500EF30C61D80
:10524000130605009386050013050D0093850B00DA
:10525000EFD0153B930B050003258900138905004A
:10526000EF30861B130605009386050013850B009F
:1052700093050900EFD0552F930B050003258400FB
:105280001399150013591900EF300619130605007C
:105290009386050013850B0093050900EFD0D576A2
:1052A000B737084003A6875F83A6C75FEFC0C57EF8
:1052B0006340A00893850C0013050C00EFC0153B5C
:1052C0009305000013090500EFC00573634A050844
:1052D00013050900EF304614930B050003258400E5
:1052E00013890500EF304613130605009386050069
:1052F00013850B0093050900EFD0157103264101BA
:105300009306C103EFE0DFFC0327C10303268101FD
:1053100083A7C4013307E040930690002320E600F2
:10532000E380D7D813073000E38CE7D66FF09FD621
:1053300083A7490137970740130707CF9306E01368
:1053400037960740B7950740130646D1938505D495
:1053500013850900E7800700930B0A006FF01FB860
:105360003797074083A74901130787D59306B014E1
:105370006FF01FFD83A5450103254501130101FFC2
:1053800023261100EFB0CF978320C1003335A00052
:10539000130101016780000023200500232205007E
:1053A0002324050067800000232005002322050038
:1053B00023240500678000001305100067800000AB
:1053C000930700026382F504B7170000B307F500E6
:1053D00003A64700630A060213078501930700002E
:1053E0006F00C000938717006380C7028326070001
:1053F00013070702E398B6FE939757009387470079
:105400003305F50067800000130500006780000089
:1054100067800000B71700003307F50003268740B8
:10542000630E060293878700B307F5001307000099
:105430006F00C000130717006302E60283A607008F
:1054400093874700E398B6FE130707481317270012
:105450003307E5000325870067800000130500007F
:1054600067800000130101FE23244101371A000068
:10547000330A450103274A00232E1100232C810003
:10548000232A9100232821012326310123225101BF
:105490006308070493090500938A05001304850136
:1054A00093040000130900026F00000193841400AC
:1054B0001304040263F6E40283270400E39827FF41
:1054C0000325440093850A00EFE0055A630E0502A8
:1054D00003274A009384140013040402E3EEE4FC5F
:1054E000130500008320C1010324810183244101AD
:1054F000032901018329C100032A8100832A410075
:1055000013010102678000009397540093874700BE
:105510003385F9006FF01FFD832705001308050090
:105520001386050003A7C701B75700409387073CC0
:10553000631AF704930700026382F504B7170000AB
:10554000B307F50083A54700638A050213078501A9
:10555000930700006F00C000938717006380F50277
:105560008326070013070702E398C6FE93975700A8
:10557000938747003305F80067800000130500009B
:105580006780000067000700130101FE232A9100D5
:10559000232E1100232C81002328210123263101F1
:1055A0009307000293040500638CF512032705009E
:1055B000B75700409387073C0327C70113840500B2
:1055C00013090600938906006316F706B717000053
:1055D000B307F50083A54700638C05069307850193
:1055E000130700006F0080006300B70603A80700E0
:1055F0001307170093870702E31888FE371500008A
:10560000B384A40003A5C440630E050A1306040076
:10561000032481018320C101832441010329010165
:105620008329C100B79507409385C5F41301010292
:105630006FC00FBEE7000700E31205FCB7170000BC
:10564000B387F40083A547009307F00763E4B70C22
:10565000371500003386A400032786408322090003
:10566000832F4900032F8900832EC900032E0901CF
:10567000032389018328C90193975500B387F40058
:105680001318270023A2570023A4F70123A6E7013C
:1056900023A8D70123AAC70123AE670023A01703BD
:1056A00023AC870093851500B38404012322B60040
:1056B000B384A40023A4840023A434211307170077
:1056C0002324E6408320C101032481018324410176
:1056D000032901018329C100130101026780000031
:1056E000B7170000B304F50003A5C440E30C05FCA4
:1056F000032481018320C101832441010329010185
:105700008329C100B7950740938545F01301010235
:105710006FC00FB0B7170000B384F40003A5C440F6
:10572000E30205FA13060400032481018320C1016A
:1057300083244101032901018329C100B795074052
:10574000930600089385C5F9130101026FC04FACA1
:105750008327050003A70702B757004093874746F2
:105760006314F70A130101FE23244101371A0000D4
:10577000330A450103274A00232C8100232A910084
:10578000232821012326310123225101232E110038
:1057900093090500938A0500130485019304000012
:1057A00013090002631A07006F008003938414003A
:1057B0001304040263F6E40283270400E39827FF3E
:1057C0000325440093850A00EFE0052A63000504E1
:1057D00003274A009384140013040402E3EEE4FC5C
:1057E000130500008320C1010324810183244101AA
:1057F000032901018329C100032A8100832A410072
:1058000013010102678000006700070093975400AE
:10581000938747003385F9006FF0DFFC130101FB2C
:1058200023229104B71400002326110423248104A9
:1058300023202105232E3103232C4103232A510346
:105840002328610323267103B3049500B79707400B
:10585000938787091304050023A2040023A40440AE
:1058600023A604402320F40013050100EFA0D24139
:10587000B7260040938606BE130601009305500626
:1058800013050400EFF05FD013050100EF60507CBA
:10589000B726004013060100938686BE93050000DC
:1058A00013050400EFF05FCE13050100EF70905672
:1058B00003A64400631406006F30406A9307840116
:1058C000130700009305A0066F00C0006314C70013
:1058D0006F10806583A607001307170093870702E0
:1058E000E396B6FEB7170000B307F40003A5C74060
:1058F000630A0500B79507401306A0069385C5F413
:10590000EFC00F9113050100EF80C075B7170000BD
:10591000B307F40003A64700631406006F30806CE1
:105920009307840113070000930580036F00C000F4
:105930006314C7006F10406883A6070013071700A1
:1059400093870702E396B6FEB7170000B307F4008B
:1059500003A5C740630A0500B795074013068003F7
:105960009385C5F4EFC0CF8A13050100EF80407224
:10597000B7170000B307F40003A64700631406003E
:105980006F30C06593078401130700009305F0048E
:105990006F00C0006314C7006F10006B83A6070080
:1059A0001307170093870702E396B6FEB7170000A8
:1059B000B307F40003A5C740630A0500B795074085
:1059C0001306F0049385C5F4EFC08F84130501001E
:1059D000EF80501CB7170000B307F40003A6470080
:1059E000631406006F30005893078401130700000A
:1059F000930500096F00C0006314C7006F10C07FDB
:105A000083A607001307170093870702E396B6FEE5
:105A1000B7170000B307F40003A5C740630A0500E9
:105A2000B7950740130600099385C5F4EFB05FFEF4
:105A300013050100EFA0C33FB73900401306010072
:105A4000938689D89305100013050400EFF0DFB3A7
:105A500013050100EF908018B7170000B307F4009A
:105A600003A64700631406006F3040569307840175
:105A700013070000930550026F00C0006314C700B5
:105A80006F10806E83A60700130717009387070225
:105A9000E396B6FEB7170000B307F40003A5C740AE
:105AA000630A0500B7950740130650029385C5F4B5
:105AB000EFB01FF613050100EF90802EB7260040CF
:105AC000938606F4130601009305100813050400DD
:105AD000EFF09FAB13050100EF90406EB72600403A
