:020000044000BA
:100000006F20563B13000000130000001300000097
:100010001300000013000000130000001300000094
:10002000732700FCF32700BCB3F7E70093F7170032
:1000300063940700678000006F20D650930700008C
:10004000739007BC736004306F20D65C9305050085
:1000500037A50640130101F8130585B4232E1106B8
:10006000232C8106232A91062328210723263107E2
:10007000EF504668EF5046679377F50F1304000082
:100080009304D0001309A000930900056F008002BB
:1000900063862703130414001307C1003307870086
:1000A000A30FF7FEEF508669EF5006649377F50FC4
:1000B0006306340113850700E39C97FC9307010650
:1000C000338487001305A000230604FAEF50066767
:1000D0001305C1001306000093050000EF50C60D84
:1000E0008320C107032481078324410703290107D3
:1000F0008329C106130101086780000037E3FFFF71
:10010000130101FE37A50640232E1100130505B586
:1001100033016100EF504663F32800B03727000039
:10012000930601013307D700B7E7FFFFB307F700D6
:100130002326F100138507009306000093050000B5
:1001400013060700130880008327C10003A70700D8
:10015000938747003307D70023AEE7FEE398C7FE37
:10016000832705009386160013054500B385F50027
:10017000E39C06FD732600B0330616419356F64104
:100180003723000093962601330161008320C101CB
:1001900093D62601B386C60037A5064093D6E6401F
:1001A000130545B6130101026F50C65437E3FFFF34
:1001B000130101FE37A50640232E1100130585B952
:1001C00033016100EF504658732800B03727000014
:1001D000930601013307D700B7E7FFFFB307F70026
:1001E0002326F10013860700B726000093070101BC
:1001F0001307000093050000B386F6001305800086
:100200008327C10023A0E70093874700E39CD7FE24
:10021000832706001307170013064600B385F50071
:10022000E310A7FE732600B0330606419356F6414D
:100230003723000093962601330161008320C1011A
:1002400093D62601B386C60037A5064093D6E6406E
:10025000130585BA130101026F50C64937E3FFFF4A
:10026000130101FE37A50640232E1100130545BDDD
:1002700033016100EF50464D732800B0372700006E
:10028000930601013307D700B7E7FFFFB307F70075
:100290002326F1001385071013860700930500003D
:1002A000930607008327C10003A70700938707026F
:1002B000B385E500E39AD7FE2320B6001306460077
:1002C000E312A6FE732600B0330606419356F641AC
:1002D0003723000093962601330161008320C1017A
:1002E00093D62601B386C60037A5064093D6E640CE
:1002F0001305C5BE130101026F50C63F130101FE75
:1003000037E3FFFF37A50640232E1100130545C133
:1003100033016100EF504643930601013727000087
:100320003307D700B7E7FFFFB307F700B7160000A2
:100330002326F100B386D7009305000003A707002A
:1003400093874700B385E500E39AD7FE732500B095
:100350000326C1008327C10003A707009387470036
:10036000B385E500E39AD7FE2320B60013064600C6
:10037000E312F6FE732600B03306A6409356F6410C
:10038000372300009396C600330161008320C1012A
:1003900093D6C600B386C60037A5064093D646411D
:1003A0001305C5BE130101026F50C63437E3FFFFCA
:1003B000130101FE37A50640232E11001305C5C207
:1003C00033016100EF504638732800B03727000032
:1003D000930601013307D700B7E7FFFFB307F70024
:1003E0002326F100138507021386070093050000FA
:1003F000930607008327C10003A7070093874700E0
:10040000B385E500E39AD7FE2320B6001306460025
:10041000E312A6FE732600B0330606419356F6415A
:100420003723000093962601330161008320C10128
:1004300093D62601B386C60037A5064093D6E6407C
:100440001305C5BE130101026F50C62A37450C4083
:100450001305C5106F00404D130101FF2326110045
:10046000EFF0DFBDB7A5064037A506409385C5D69A
:10047000130545D7EF50062837450C40130545189E
:10048000EF00804A8320C100130500001301010121
:100490006780000037450C401305C5206F00C04839
:1004A000130101FF23261100EF5006248320C10011
:1004B0001375F50F1301010167800000130101FF9F
:1004C00023248100232611001304050003450500A1
:1004D000630A050013041400EF5046260345040088
:1004E000E31A05FE8320C1000324810013010101EA
:1004F00067800000130515001315250067800000B4
:1005000093070500630AB5046304050463820504C8
:100510000326050003A7050013050000631CC7029E
:10052000635CC00213854700938545009307000074
:100530006F00C000938545006300F6028326050026
:1005400003A705009387170013054500E384E6FE23
:10055000130500006780000013051000678000008D
:100560009307000163EEA700B7A70640938707EF44
:10057000131525003385A7000325050067800000BB
:1005800037A506401305C5E46780000037A506407F
:10059000130101FF130545F32326110023248100D5
:1005A0002322910023202101EF50061A37A506408F
:1005B0001305C5F4EFF09FA91304050037A5064005
:1005C000130545F6EFF09FA8930405000B08A4005F
:1005D00037A9064093060500930708001307080093
:1005E00013060400930500001305C9F7EF508610A9
:1005F0000B189400930510009307080013070800D8
:1006000093860400130604001305C9F7EF50860E05
:100610000B28940093052000930708001307080097
:1006200093860400130604001305C9F7EF50860CE7
:100630000B38940093053000930708001307080057
:1006400093860400130604001305C9F7EF50860AC9
:100650000B48940093054000930708001307080017
:1006600093860400130604001305C9F7EF508608AB
:100670000B589400930550009307080013070800D7
:1006800093860400130604001305C9F7EF5086068D
:100690000B68940093056000930708001307080097
:1006A00093860400130604001305C9F7EF5086046F
:1006B0000B78940013060400032481008320C100FA
:1006C000938604001305C9F7832441000329010020
:1006D0009305700093070800130708001301010138
:1006E0006F50460137A50640130101FE130545FC76
:1006F000232E1100232C8100232A9100232821017D
:100700002326310123244101EF50060437A506407A
:10071000130505FEB709010037890000B71405006D
:10072000EF5086021304000037AA06409389F9FFB0
:10073000130939109384E4A1334634018B06C400B5
:100740000B17C4008B27C4009305040013054A014E
:1007500033042401EF40167AE31094FE8320C10194
:100760000324810183244101032901018329C1005C
:10077000032A81001301010267800000130101FABE
:1007800037A50640232E7103232C8103130545044E
:10079000370C0100B70B100B232C8104232E1104FE
:1007A000232A9104232821052326310523244105EA
:1007B0002322510523206105232A91032328A10325
:1007C0002326B10313040000EF401678130CFCFF3E
:1007D000232E0100938B3B230329C101372B17FFE5
:1007E000930D0000130B3B7F8B09B4010B1AB4016E
:1007F0008B2AB4019305000093860D0013060400B4
:1008000013050000EF00D03993860D001306040095
:1008100093050000930C050013051000EF005038FD
:100820009304050093860D00130604009305000051
:1008300013052000EF00D036B7A70640130D0500C2
:1008400013091900138587066394990163049A0CB0
:10085000EF40966F37A5064013860D0093880A0077
:100860001388040093070A0013870C00938609007D
:10087000930504002320A1011305C50AEF409667E4
:10088000B3778901B38D7D01638A0706E39E6DF519
:100890000327C101B7077100938757003304F400A1
:1008A00013071734B71722FF9387A7B4232EE1004D
:1008B000E314F4F2032481058320C1058324410558
:1008C0008329C104032A8104832A4104032B0104E0
:1008D000832BC103032C8103832C4103032D0103CC
:1008E000832DC102930509000329010537A50640A0
:1008F0001305C511130101066F40D65FB7A7064067
:100900009305090013854710EF40D65EE39E6DED19
:100910006FF01FF8E39EAAF36FF09FF637450C4087
:10092000130545246F004000130101F8232A9106A6
:100930002328210723263107232441072322510797
:1009400023206107232E7105232C8105232E1106F8
:10095000232C8106232A910513090500930985009C
:10096000B7AA064037AA0640B7A4064037AB0640F0
:1009700037AC0640B7AB06400325090013840900D5
:10098000EF40865D13060500930C05009305D00328
:1009900013050100EF4086588325090093070105E0
:1009A000B38C97011306010013850A1A23880CFAE9
:1009B000EF40565483458900638E050003264400AA
:1009C0001385041B13040401EF40D6528345040031
:1009D000E39605FE8325490013058A1AEF409651D8
:1009E000EFF01FAC930C0500EF405655834789008C
:1009F000638C070013840900638E97018347040109
:100A000013040401E39A07FE1305CB1BEF40964E37
:100A10006FF09FF61305A000EF4056528347C400C5
:100A2000639207028325440013058C1CEF40964C0B
:100A300083278400E780070013858B1DEF40D65085
:100A40006FF09FF38320C1070324810783244107AC
:100A5000032901078329C106032A8106832A410647
:100A6000032B0106832BC105032C8105832C410533
:100A70001301010867800000130101FF2326110004
:100A800023248100EF10166B37A506401305C51D02
:100A9000EF405646EF105677EF1096748305050029
:100AA0001304050037A506401305C51EEF40964404
:100AB0008305140083070400032481008320C10000
:100AC00037A506401305851FB385F54013010101C5
:100AD0006F40564237A50640130101FF1305C5209C
:100AE0002326110023248100EF40164637550B4082
:100AF000130505F7EF10166937A506401305C51D48
:100B0000EF40563FEF105670EF10966D83050500CD
:100B10001304050037A506401305C51EEF40963D9A
:100B20008305140083070400032481008320C1008F
:100B300037A506401305851FB385F5401301010154
:100B40006F40563B37A50640130101FF13050522F0
:100B50002326110023248100EF40163F37750B40F8
:100B600013050537EF10166237A506401305C51D9E
:100B7000EF405638EF105669EF1096668305050072
:100B80001304050037A506401305C51EEF40963631
:100B90008305140083070400032481008320C1001F
:100BA00037A506401305851FB385F54013010101E4
:100BB0006F405634130101FE232E1100232C8100B7
:100BC000232A9100232821012326310123244101D6
:100BD000EF10565637AA06401305CA1DEF4096314E
:100BE000EF109662EF10D65F83050500B7A90640A7
:100BF000130405001385C91EEF40D62F0306040019
:100C00008304140037550B40130505F7B384C44023
:100C1000EF1056571305CA1DEF40D62DEF10D65EC4
:100C2000EF10165C83050500130405001385C91E2B
:100C3000EF40562C830704000309140037750B405E
:100C4000130505373309F940EF10D6531305CA1DB4
:100C5000EF40562AEF10565BEF10965883050500BB
:100C6000130405001385C91EEF40D628830714001E
:100C700003040400130700F733848740639EE406EF
:100C800093072003631CF9009307200E6318F408F0
:100C900037A506401305C5266F000004B7A9064016
:100CA00093062003130609009305100013850923FA
:100CB000EF4056249307200E630CF4009306200E99
:100CC000130604009305200013850923EF409622A4
:100CD00037A5064013058528032481018320C1011F
:100CE00083244101032901018329C100032A8100D2
:100CF000130101026F405625B7A90640930600F77D
:100D0000138604009305000013850923EF40961E07
:100D100093072003E300F9FA6FF09FF8B7A90640A4
:100D20006FF0DFF9B7470C4083A5473037A5064081
:100D3000130101FF1305053423261100EF101615CA
:100D40008320C10037450C401305C529130101015B
:100D50006FF09FBD37450B40130101FF13058595CB
:100D600023261100EF40161937450B40930500006C
:100D700013054596EF40161837450B4093050000C4
:100D800013054597EF401617F32500B08320C100E7
:100D900037450B4013054598130101016F40961527
:100DA00037450B40B7470C401307100013060000EF
:100DB000930510001305459923A8E7426F40961349
:100DC00037450B40B7470C40130600009305000061
:100DD0001305459923A807426F40D611B7470C4029
:100DE00083A5074337450B40130101FF1305059BFE
:100DF00023261100EF40161093070000739007B0F0
:100E00008320C1001301010167800000B7470C4037
:100E100083A5074337450B401305459D6F40960D4D
:100E2000B7470C4083A5074337450B401305C59EC4
:100E30006F40560C130101FFB7470F002326110026
:100E400093870724130000009387F7FFE39C07FEB6
:100E5000B7470F0093870724130000009387F7FF1D
:100E6000E39C07FEB7470F00938707241300000099
:100E70009387F7FFE39C07FE37450B40930500007F
:100E8000130545A0EF40160737450B4093050000BA
:100E9000130505A2EF40160637450B4093050000E9
:100EA0001305C5A3EF40160537450B409305000019
:100EB000130585A5EF40160437450B409305000048
:100EC000130545A7EF40160337450B40130505A949
:100ED000EF40560237450B4093050000130545A926
:100EE000EF4056018320C10037450B4093050000B9
:100EF000130585AC130101016F40C67F130101FF8B
:100F000023248100232291002326110093840500CD
:100F10001304050063940504B79798009387F76757
:100F200063EEA702B72700009387F77063F6A70860
:100F30001305451FB33585001306803E9306000058
:100F4000EF30966D1306050037450B40938605007C
:100F5000130545B0EF40067A6F00C00337A50700C0
:100F6000130505123305A400B335850037460F007D
:100F70001306062493060000B3859500EF30D6696A
:100F80001306050037450B40938605001305C5AFD2
:100F9000EF40467613060400032481008320C1003D
:100FA000938604008324410037450B40130545B167
:100FB000130101016F4006741306050037450B400D
:100FC000930600001305C5B0EF40C6726FF09FFC9A
:100FD0006780000037450B40130505B26F408671EE
:100FE00037450C40130585306FF01F9413F6C5FF8D
:100FF0003306C500130700006306C50E37339ECCC9
:10100000B738871B377854E6130313D593883859BC
:10101000130848B68327050013054500B387670208
:101020009396F70093D71701B3E7D700B387170359
:10103000B3C7E7001397D70093D73701B367F7001B
:1010400013972700B307F70033870701E314A6FCC3
:10105000B3C7E50093F53500638C050493061000D3
:10106000034706006382D50283461600130520005D
:10107000939686003307D7006388A5008346260031
:10108000939606013307D700B7369ECC938616D5C4
:101090003307D7029316F7001357170133E7E6001B
:1010A000B736871B938636593307D702B3C7E70095
:1010B00013D70701B347F70037D7EB851307B7A658
:1010C0003387E70237B5B2C2130555E39357D7000C
:1010D000B3C7E700B387A70213D507013345F5006F
:1010E00067800000938705006FF0DFF6B7470B407D
:1010F000130101D8938707CD232E1126232C812697
:10110000232A9126232821272326312723244127F8
:101110002322512723206127232E71251307410005
:101120009388472403A8070003A5470083A58700E9
:1011300003A6C70083A60701232007012322A700D7
:101140002324B7002326C7002328D700938747010D
:1011500013074701E39817FD83A6070083A74700FD
:10116000130481002320D7002322F70093040000FA
:1011700093090000374B0B4037490B40B74A0B40EF
:10118000130AF0FFB74B0B409385040013050BC403
:10119000EF4046568325440113050400EFF01FE598
:1011A0000326C4FF93060500832544011387CAC99B
:1011B000130549C6638CC6041304C401EF4086536B
:1011C0008327440193841400E39047FD37450B4087
:1011D0001386040093850900130585C4EF408651EA
:1011E0008320C12703248127832441270329012742
:1011F0008329C126032A8126832A4126032B01261F
:10120000832BC125130101286780000013870BC6BB
:1012100013860600130549C61304C401EF40864D2A
:10122000832744019389190093841400E39E47F5B2
:101230006FF0DFF937450C401305053A6FF0CFEE3C
:1012400037450B401305C5F16F400650130101FDF2
:1012500037450B40232E3101232C410123267101F8
:10126000130505F3B7490000370A7700B7CB34FF01
:10127000232A510123286101232481012322910182
:1012800023261102232481022322910223202103F9
:10129000930C0000EF40464B930A0000130B000034
:1012A00093897956130A7A07938BBB9C374C0B4072
:1012B00037C40000130484A9B384890013090B0008
:1012C0008B878900930604001387040093050900A7
:1012D0001386090013050CF5330444016380F408F8
:1012E000EF404641938C1C0013091900B38444015C
:1012F000E31874FDB727210093875734B389F900A9
:10130000B74704F8938737DD130B5B22E392F9FAB2
:10131000032481028320C1028324410203290102A4
:101320008329C101032A8101032B0101832BC10001
:10133000032C810093860C0013860A00832C410045
:10134000832A4101B715100037450B409385C5CE60
:10135000130505F8130101036F40C639938A1A007B
:1013600013091900B3844401E31C74F5B727210065
:1013700093875734B389F900B74704F8938737DD6B
:10138000130B5B22E396F9F26FF09FF837450C40A0
:101390001305853D6FF04FD967800000678000001E
:1013A000631405003306D6001305060067800000AD
:1013B00003230500130101FC2324C1022326D102CB
:1013C0002328E102232AF102232C0103232E1103F7
:1013D0008327830013068102232E11002326C100D8
:1013E000E78007008320C10113010104678000002A
:1013F00083250500130101FC2326D1022328E102E5
:10140000232AF102232C0103232E110383A7850035
:10141000930506001306C102232E11002326C100E6
:10142000E78007008320C1011301010467800000E9
:101430001307F000636CA71037470B409317250084
:101440001307C7FFB387E70083A70700678007007C
:101450009307F00023A0F50013050000678000004B
:101460009307000123A0F50013050000678000002A
:101470009307100023A0F500678000009307A000E9
:1014800023A0F500130500006780000093072000EB
:1014900023A0F500130500006780000093073000CB
:1014A00023A0F500130500006780000093074000AB
:1014B00023A0F5001305000067800000930750008B
:1014C00023A0F5001305000067800000930760006B
:1014D00023A0F5001305000067800000930770004B
:1014E00023A0F5001305000067800000930780002B
:1014F00023A0F5001305000067800000930790000B
:1015000023A0F50013050000678000009307B000DA
:1015100023A0F50013050000678000009307C000BA
:1015200023A0F50013050000678000009307D0009A
:1015300023A0F50013050000678000009307E0007A
:1015400023A0F5001305000067800000130101FFD0
:10155000232611009307060023A00500B7450B4082
:1015600013060500938585FD13850700EFF05FE402
:101570008320C100130510001301010167800000E2
:10158000130500006780000003270600130101FF18
:1015900093070600032707002324810023229100DC
:1015A00013040500130640001385070023261100CD
:1015B0009305800093840600E7000700832704005A
:1015C0001306A00023200500B307F44003D707004B
:1015D000230205006372E60883D6A700638E060621
:1015E000B306D40003C606009306B0006316D60601
:1015F0009306C00063F2E60683D7C7003304F40005
:10160000638C0704832704001306400013071000AF
:101610003304F40083270400B307F44083D60700A3
:10162000637AD60203D747009305000063140704CA
:101630002320B50013076000637AD70483D76700BF
:1016400013071000638807003304F4000347040005
:101650003337E0002302E5008320C100032481002A
:1016600023A0A400832441001305000013010101FD
:10167000678000003307E400830507001387F5FF48
:10168000E378E6FA930500006FF09FFA1307100065
:101690002302E5006FF05FFC130500006780000087
:1016A00083270600130101FE232A910083A7070068
:1016B00093040600232C8100232821011304050034
:1016C0002326310123244101232E1100138A050012
:1016D000130640009305400013850400938906001B
:1016E000E7800700832704009306A000232005005D
:1016F000B307F44003D707001309050063F2E608B7
:1017000083D6A700638E0606B306D40003C6060080
:10171000930680026316D6069306C00063F2E606BF
:1017200083D7C7003304F400638C070483270400C5
:1017300013074000130500003304F400832704005E
:10174000B307F44083D607006376D70083D74700FA
:10175000639E070413060A0093050900EFF05FCDAE
:1017600013040500630E050083A704009305090018
:101770001385040083A74700E78007006F00C000BF
:1017800023A02901130400008320C10113050400D4
:101790000324810183244101032901018329C1001C
:1017A000032A810013010102678000003304F40062
:1017B000030504006FF01FFA83270600130101FEE2
:1017C000232A910083A7070093040600232C81009D
:1017D000232821011304050023263101232441017C
:1017E000232E1100138A05001306400093054000C4
:1017F0001385040093890600E7800700832704000F
:101800009306A00023200500B307F44003D7070088
:101810001309050063F2E60883D6A700638E060667
:10182000B306D40003C60600930690036316D606DB
:101830009306C00063F2E60683D7C7003304F400C2
:10184000638C07048327040013074000130500007E
:101850003304F40083270400B307F44083D6070061
:101860006376D70083D74700639E070413060A00F8
:1018700093050900EFF0DFBB13040500630E0500BC
:1018800083A70400930509001385040083A747007C
:10189000E78007006F00C00023A0290113040000A7
:1018A0008320C10113050400032481018324410125
:1018B000032901018329C100032A810013010102C8
:1018C000678000003304F400030504006FF01FFA82
:1018D000130500006780000013050000678000000A
:1018E00003270600130101FF9307060003270700E3
:1018F00023248100232291001304050023261100D4
:1019000013850700130640009305400093840600EA
:10191000E7000700832704009306A00023200500AA
:10192000B307F44003D7070063F2E60683D6A700A7
:10193000638E0604B306D40003C606009306700641
:101940006316D6049306C00063F2E60483D7C7008B
:101950003304F400638C07028327040093064000DD
:10196000130700003304F40083270400B307F44096
:1019700003D6070063FAC60083D7470063860700D3
:101980003304F400032704002320E5008320C10072
:101990000324810023A0A400832441001305000038
:1019A000130101016780000013050000678000003B
:1019B00003270600130101FF930706000327070012
:1019C0002324810023229100130405001306400004
:1019D00013850700232611009305800093840600D9
:1019E000E7000700832704001306A000232005005A
:1019F000B307F44003D7070023220500637EE60601
:101A000083D6A700638A0606B306D40083C6060001
:101A10006394C6069306C00063F0E60683D7C7004A
:101A20003304F400638A07048327040093066000EC
:101A30003304F40083270400B307F44003D70700FE
:101A400063FAE60403D76700630E07003307E40078
:101A500003070700930640001306F7FF63E4C60080
:101A60002322E50083D74700638A07023304F4008A
:101A7000832704002320F5008320C1000324810074
:101A800023A0A400832441001305000013010101D9
:101A90006780000093064000E3E6E6FC9307000041
:101AA0002320F5006FF05FFD03270600130101FFFF
:101AB00093070600032707002324810023229100B7
:101AC00013040500130640001385070023261100A8
:101AD0009305800193840600E70007008327040034
:101AE0001306A00023200500B307F44003D7070026
:101AF00023220500232405002326050023280500B2
:101B0000232A0500637AE60E03D6A7006306060EB5
:101B10003306C4000346060093061000631ED60C6D
:101B20009306C00063FAE60C83D7C7003304F400C1
:101B30006384070C83270400130740003304F40078
:101B400083270400B307F44083D60700637CD70ED5
:101B500003D6470093051000630E06003306C40049
:101B600003070600630807001307F7FF1337170082
:101B7000931517002320B50013076000637ED7027A
:101B800003D7670013060000631E070C2322C5005D
:101B9000130780006372D70203D787001306000083
:101BA000631C070A2324C5001307A0006376D7002F
:101BB00003D7A70063100706130700002326E500DC
:101BC0001307C0006378D70603D7C70013061000B9
:101BD000631E07062328C5001307E000637AD708B1
:101BE00003D7E70093071000630607003304E400FF
:101BF00083270400232AF5008320C10003248100E9
:101C000023A0A40083244100130500001301010157
:101C1000678000003307E400030707001306400055
:101C20009305F7FFE36AB6F82326E5001307C00023
:101C3000E36CD7F8930710002328F500232AF5005A
:101C40006FF09FFB2320C5006FF01FF73307E40000
:101C5000032607006FF01FF83307E4000326070090
:101C60006FF05FF43307E400032607006FF01FF204
:101C700093071000232AF5006FF01FF803270600D2
:101C8000130101FF930706000327070023248100A7
:101C9000232291001304050013061000138507008A
:101CA000232611009305200093840600E700070017
:101CB000832704001306A00023000500B307F440A7
:101CC00003D70700A3000500637EE60683D6A700BE
:101CD000638A0606B306D40003C6060093066006B0
:101CE0006312D6069306C00063FEE60483D7C700DE
:101CF0003304F4006388070483270400930640003C
:101D00003304F40083270400B307F44003D707002B
:101D100063F8E60403D64700930600006318060440
:101D20002300D5009306600063FCE60283D76700BA
:101D3000638807023304F40083470400B337F000DC
:101D4000A300F5008320C1000324810023A0A40088
:101D50008324410013050000130101016780000086
:101D600093070000A300F5006FF0DFFD3306C40009
:101D700083460600B336D0006FF09FFA13050000CB
:101D80006780000003270600130101FF9307060088
:101D90000327070023248100232291001304050058
:101DA0002326110013850700130640009305400009
:101DB00093840600E7000700832704009306A00031
:101DC00023200500B307F44003D7070063F2E606BB
:101DD00083D6A700638E0604B306D40003C60600AC
:101DE0009306E0056316D6049306C00063F2E6048A
:101DF00083D7C7003304F400638C070283270400F1
:101E000093064000130700003304F4008327040006
:101E1000B307F44003D6070063FAC60083D7470030
:101E2000638607003304F400032704002320E50041
:101E30008320C1000324810023A0A4008324410047
:101E4000130500001301010167800000032706004D
:101E5000130101FF930706000327070023248100D5
:101E60002322910013040500130640001385070088
:101E7000232611009305C00193840600E7000700A4
:101E8000832704001306A00023200500B307F440B5
:101E900003D707002322050023240500232605007D
:101EA00023280500232A0500232C05006376E6106D
:101EB00003D6A700630206103306C40003460600DB
:101EC00093062000631AD60E9306C00063F6E60E52
:101ED00083D7C7003304F4006380070E8327040010
:101EE000130740003304F40083270400B307F440D1
:101EF00083D607006378D71003D6470093051000F8
:101F0000630E06003306C4000307060063080700DB
:101F10001307F7FF13371700931517002320B50099
:101F200013076000637AD70403D767001306000025
:101F3000631207102322C50013078000637ED702B7
:101F400003D78700130600006310070E2324C50083
:101F50001307A0006372D70203D7A700130600007F
:101F6000631E070A2326C5001307C0006376D70047
:101F700003D7C70063100706130700002328E500F6
:101F80001307E0006378D70603D7E70013061000B5
:101F900063100708232AC500130700016372D70ADC
:101FA00003D7070193071000630607003304E4001A
:101FB00083270400232CF5008320C1000324810023
:101FC00023A0A40083244100130500001301010194
:101FD000678000003307E400030707001306400092
:101FE0009305F7FFE36AB6F82328E5001307E0003E
:101FF000E36CD7F893071000232AF500232CF50093
:102000006FF09FFB130710002320E5006FF0DFF651
:102010003307E400032607006FF0DFF73307E4001F
:10202000032607006FF01FF43307E40003260700C0
:102030006FF0DFF13307E400032607006FF09FEF36
:1020400093071000232CF5006FF01FF71305000015
:102050006780000013050000678000001305000082
:102060006780000013050000678000001305000072
:102070006780000013050000678000001305000062
:102080006780000013050000678000001305000052
:102090006780000083270600130101FE232631011B
:1020A00083A7070093090600232C8100232A9100AF
:1020B000130405002328210123244101232E1100AC
:1020C000138A0500130640009305C000138509001C
:1020D00013890600E7800700832704009306A00009
:1020E00023200500B307F44003D70700232205008F
:1020F000231405009304050063F6E60A83D6A700BF
:102100006382060AB306D40003C606009306800065
:10211000631AD6089306C00063F6E60883D7C700A3
:102120003304F4006380070803250400930640008D
:102130003304A40083270400B307F44003D7070047
:1021400063F2E60A03D64700930500006310060811
:1021500023A0B4009306800063F6E60803D6870048
:1021600093060000631E06082384D4009306A00093
:1021700063FAE60083D6A70013070000639A0606F9
:10218000A384E40083D76700638E07003304F40060
:10219000830704006388070013071000639AE706AB
:1021A00023A2F4008320C10103248101232099008C
:1021B0008329C1008324410103290101032A8100ED
:1021C0001305000013010102678000003306C400FC
:1021D000830506001386F5FFE3FCC6F693050000B1
:1021E0006FF01FF793066000E3FEE6FA6FF09FF9C9
:1021F000B306D40003C706003337E0006FF05FF882
:102200003306C40083460600B336D0006FF0DFF516
:10221000B7450B409385C50313050A00EFF04F99AE
:1022200083A70900138509009385040083A747004D
:10223000E78007008320C101032481018324410139
:10224000032901018329C100032A8100130510001D
:102250001301010267800000130500006780000081
:102260001305000067800000130500006780000070
:1022700003270600130101FF930706000327070049
:10228000232481002322910013040500232611003A
:102290001385070013064000930540009384060051
:1022A000E7000700832704009306A0002320050011
:1022B000B307F44003D7070063F4E60683D6A7000C
:1022C00063800606B306D40083C606001306C0006A
:1022D0006398C60463F6E60483D7C7003304F400AA
:1022E000638007048327040093064000130700005F
:1022F0003304F40083270400B307F44003D6070037
:1023000063FEC60083D74700638A07003304F400E6
:10231000030704009307F7FF63E2F6022320E500BA
:102320008320C1000324810023A0A4008324410052
:10233000130500001301010167800000130700006E
:102340002320E5006FF0DFFD03270600130101FFE6
:10235000930706000327070023248100232291000E
:1023600013040500232611001385070013064000FF
:102370009305400093840600E700070083270400CC
:10238000130700002320E500B307F44003D707003C
:102390009306A00063F2E60683D6A700638E0604C8
:1023A000B306D40003C606009306B0046316D60431
:1023B0009306C00063F2E60483D7C7003304F40039
:1023C000638C070283270400930640001307000074
:1023D0003304F40083270400B307F44003D6070056
:1023E00063FAC60083D74700638607003304F4000E
:1023F000032704002320E5008320C100032481007B
:1024000023A0A4008324410013050000130101014F
:1024100067800000130500006780000013050000BE
:1024200067800000130500006780000013050000AE
:10243000678000001305000067800000130500009E
:10244000678000001305000067800000130500008E
:102450006780000013050000678000000327060066
:10246000130101FF930706000327070023248100BF
:102470002322910013040500232611001385070071
:10248000130640009305400093840600E700070010
:10249000832704009306A00023200500B307F4401F
:1024A00003D7070063FAE60683D6A700638606060D
:1024B000B306D40003C606009306D004631ED604F8
:1024C0009306C00063FAE60483D7C7003304F40020
:1024D0006384070483270400930640001307100059
:1024E0003304F40083270400B307F44003D6070045
:1024F00063F2C60283D74700638E07003304F400FB
:1025000083070400638807001387F7FF133717005A
:10251000131717002320E5008320C1000324810046
:1025200023A0A4008324410013050000130101012E
:102530006780000003270600130101FF93070600D0
:1025400003270700232481002322910013040500A0
:102550002326110013850700130640009305400051
:1025600093840600E7000700832704009306A00079
:1025700023200500B307F44003D7070063F6E606FF
:1025800083D6A70063820606B306D40003C60600FE
:1025900093065001631AD6049306C00063F6E6045E
:1025A00083D7C7003304F400638007048327040043
:1025B00093064000130700003304F400832704004F
:1025C000B307F44003D6070063FEC60083D7470075
:1025D000638A07003304F400030704009307F7FF3E
:1025E00063E2F6022320E5008320C100032481007A
:1025F00023A0A4008324410013050000130101015E
:1026000067800000130700002320E5006FF0DFFD66
:1026100013050000678000001305000067800000BC
:1026200003270600130101FF930706000327070095
:102630002324810023229100130405002326110086
:10264000138507001306400093058000938406005D
:10265000E7000700832704009306A000232005005D
:10266000B307F44003D707002322050063FCE60606
:1026700083D6A70063880606B306D40003C6060007
:102680009306B0036310D6069306C00063FCE6040D
:1026900083D7C7003304F40063860704832704004C
:1026A000930640003304F40083270400B307F4408A
:1026B00003D7070063F6E60483D64700130600003D
:1026C000639606042320C5009306600063FAE602C1
:1026D00083D76700638607023304F400832704006E
:1026E0002322F5008320C1000324810023A0A4003D
:1026F00083244100130500001301010167800000DD
:10270000930700002322F5006FF0DFFDB306D4002D
:1027100003A606006FF01FFB130500006780000092
:10272000130500006780000003270600130101FF66
:10273000930706000327070023248100232291002A
:10274000130405001306400013850700232611001B
:102750009305800293840600E700070083270400A6
:102760001306A00023200500B307F44003D7070099
:102770002322050023240500232605002328050025
:10278000232A0500232C0500232E05002320050203
:1027900023220502637EE60E03D6A700630A060E17
:1027A0003306C40003460600930650006312D60E9B
:1027B0009306C00063FEE60C83D7C7003304F40021
:1027C0006388070C83270400130740003304F400D8
:1027D00083270400B307F44083D607006378D70C3F
:1027E00003D7470013061000630E07003307E40009
:1027F00003070700630807001307F7FF13371700E5
:10280000131617002320C500130760006374D70A4E
:1028100003D76700130600006316070C2322C500C8
:10282000130780006378D70803D7870013060000DA
:102830006314070A2324C5001307A000637CD7068E
:1028400003D7A70013060000631207082326C5005C
:102850001307C0006370D70603D7C7001306000034
:10286000631007062328C5001307E0006374D7042C
:1028700083D7E700638007043304F4008307040070
:10288000130740009386F7FF6366D702232AF500FB
:102890008320C1000324810023A0A40083244100DD
:1028A0001305000013010101678000009307100069
:1028B0002320F50093070000232AF5006FF05FFD49
:1028C0003307E400032607006FF0DFF93307E40065
:1028D000032607006FF09FF73307E4000326070085
:1028E0006FF05FF53307E400032607006FF01FF376
:1028F00013050000678000001305000067800000DA
:10290000130500006780000003270600130101FF84
:102910009307060003270700232481002322910048
:102920001304050023261100138507001306100069
:102930009305100093840600E70007008327040036
:102940009306A00023000500B307F44003D7070057
:1029500063F4E60683D6A70063800606B306D400B8
:1029600003C606009306B0016318D6049306C000A0
:1029700063F4E60483D7C7003304F400638E0702D0
:102980008327040093064000130700003304F4007B
:1029900083270400B307F44003D6070063FCC60096
:1029A00083D74700638807003304F400034704001B
:1029B0003337E0002300E5008320C10003248100B9
:1029C00023A0A4008324410013050000130101018A
:1029D00067800000130500006780000013050000F9
:1029E0006780000083270600130101FE23263101C2
:1029F00083A7070093090600232C8100232A910056
:102A0000232821019304050023244101232E1100D2
:102A1000138A050013064000930540021385090040
:102A200013890600E780070083A704009306A0002F
:102A300023200500B387F44003D7070023220500B5
:102A4000232405002326050023280500232A05004A
:102A5000232C0500232E0500232005021304050066
:102A600063F6E60E83D6A7006382060EB386D40013
:102A700003C6060093061001631AD60C9306C00025
:102A800063F6E60C83D7C700B384F4006380070CB9
:102A900083A7040013074000B384F40083A7040055
:102AA000B387F44083D607006372D70A83D7470001
:102AB000638E0708B384F40083A704001307800023
:102AC000B384F40083A704006366F70A638E0706E5
:102AD00083A64400130710002320D5006386E70671
:102AE00083A68400130720002322D500638EE70409
:102AF00083A6C400130730002324D5006386E704AF
:102B000083A60401130740002326D500638EE70245
:102B100083A64401130750002328D5006386E702EB
:102B200083A6840113076000232AD500638EE70083
:102B300083A6C40113077000232CD5006386E70029
:102B400003A70402232EE5002320F402232089009A
:102B50008320C10103248101832441010329010150
:102B60008329C100032A810013050000130101021B
:102B70006780000037460B40B7450B4013068606BA
:102B80009385050713050A00EFE09F8283A70900DC
:102B9000138509009305040083A74700E780070019
:102BA0008320C10103248101832441010329010100
:102BB0008329C100032A81001305100013010102BB
:102BC0006780000003270600130101FF930706003A
:102BD000032707002324810023229100130405000A
:102BE000130610001385070023261100930520000B
:102BF00093840600E7000700832704001306A00063
:102C000023000500B307F44003D70700A300050025
:102C1000637EE60683D6A700638A0606B306D40061
:102C200003C606009306F0006312D6069306C000A2
:102C300063FEE60483D7C7003304F4006388070407
:102C400083270400930680003304F40083270400E4
:102C5000B307F44003D7070063F8E60403D6870000
:102C600093060000631806042300D5009306A00015
:102C700063FCE60283D7A700638807023304F400ED
:102C800083470400B337F000A300F5008320C100A0
:102C90000324810023A0A400832441001305000025
:102CA000130101016780000093070000A300F500F5
:102CB0006FF0DFFD3306C40083460600B336D00054
:102CC0006FF09FFA03270600130101FF9307060028
:102CD0000327070023248100232291001304050009
:102CE000130610001385070023261100930520000A
:102CF00093840600E7000700832704001306A00062
:102D000023000500B307F44003D70700A300050024
:102D1000637EE60683D6A700638A0606B306D40060
:102D200003C606009306A0046312D6069306C000ED
:102D300063FEE60483D7C7003304F4006388070406
:102D400083270400930640003304F4008327040023
:102D5000B307F44003D7070063F8E60403D647003F
:102D600093060000631806042300D5009306600054
:102D700063FCE60283D76700638807023304F4002C
:102D800083470400B337F000A300F5008320C1009F
:102D90000324810023A0A400832441001305000024
:102DA000130101016780000093070000A300F500F4
:102DB0006FF0DFFD3306C40083460600B336D00053
:102DC0006FF09FFA130500006780000013050000F4
:102DD0006780000083270600130101FE232A91006B
:102DE00083A7070093040600232C810023282101D8
:102DF000130405002326310123244101232E110051
:102E0000138A050013064000930540001385040053
:102E100093890600E7800700832704009306A0003B
:102E200023200500B307F44003D70700130905006A
:102E300063F2E60883D6A700638E0606B306D400C5
:102E400003C60600930670036316D6069306C000F9
:102E500063F2E60683D7C7003304F400638C0704EB
:102E60008327040013074000130500003304F40017
:102E700083270400B307F44083D607006376D700A6
:102E800083D74700639E070413060A0093050900D1
:102E9000EFE00FDA13040500630E050083A70400BA
:102EA000930509001385040083A74700E780070006
:102EB0006F00C00023A02901130400008320C1017A
:102EC0001305040003248101832441010329010126
:102ED0008329C100032A81001301010267800000D9
:102EE0003304F400030504006FF01FFA130500001B
:102EF0006780000003270600130101FF9307060007
:102F000003270700232481002322910013040500D6
:102F10002326110013850700130640009305400087
:102F200093840600E70007008327040013070000CE
:102F30002320E500B307F44003D707009306A00061
:102F400063F2E60683D6A700638E0604B306D400B8
:102F500003C60600930690006316D6049306C000CD
:102F600063F2E60483D7C7003304F400638C0702DE
:102F70008327040093064000130700003304F40085
:102F800083270400B307F44003D6070063FAC600A2
:102F900083D74700638607003304F4000327040047
:102FA0002320E5008320C1000324810023A0A40086
:102FB0008324410013050000130101016780000014
:102FC000130500006780000003270600130101FFBE
:102FD0009307060003270700232481002322910082
:102FE0001304050023261100138507001306400073
:102FF0009305400093840600E70007008327040040
:103000009306A00023200500B307F44003D7070070
:1030100063F2E60683D6A700638E0604B306D400E7
:1030200003C60600930630016316D6049306C0005B
:1030300063F2E60483D7C7003304F400638C07020D
:103040008327040093064000130700003304F400B4
:1030500083270400B307F44003D6070063FAC600D1
:1030600083D74700638607003304F4000327040076
:103070002320E5008320C1000324810023A0A400B5
:103080008324410013050000130101016780000043
:1030900003270600130101FF93070600032707001B
:1030A000232481002322910013040500232611000C
:1030B0001385070013064000930540009384060023
:1030C000E7000700832704009306A00023200500E3
:1030D000B307F44003D7070063F2E60683D6A700E0
:1030E000638E0604B306D40003C6060093063002BE
:1030F0006316D6049306C00063F2E60483D7C700C4
:103100003304F400638C0702832704009306400015
:10311000130700003304F40083270400B307F440CE
:1031200003D6070063FAC60083D74700638607000B
:103130003304F400032704002320E5008320C100AA
:103140000324810023A0A400832441001305000070
:10315000130101016780000003270600130101FF2E
:1031600093070600032707002324810023229100F0
:1031700013040500232611001385070013064000E1
:103180009305400093840600E700070083270400AE
:103190009306A00023200500B307F44003D70700DF
:1031A00063F2E60683D6A700638E0604B306D40056
:1031B00003C606009306F0046316D6049306C00007
:1031C00063F2E60483D7C7003304F400638C07027C
:1031D0008327040093064000130700003304F40023
:1031E00083270400B307F44003D6070063FAC60040
:1031F00083D74700638607003304F40003270400E5
:103200002320E5008320C1000324810023A0A40023
:1032100083244100130500001301010167800000B1
:1032200083270600130101FE2326310183A707002F
:1032300093090600232C8100232A910023282101D1
:103240009304050023244101232E1100138A050055
:1032500013064000930540021385090013890600F8
:10326000E780070083A704009306A0002320050041
:10327000B387F44003D70700232205002324050069
:103280002326050023280500232A0500232C0500FA
:10329000232E0500232005021304050063F6E60E25
:1032A00083D6A7006382060EB386D40003C6060049
:1032B0009306E001631AD60C9306C00063F6E60C91
:1032C00083D7C700B384F4006380070C83A704008E
:1032D00013074000B384F40083A70400B387F440CD
:1032E00083D607006372D70A83D74700638E070827
:1032F000B384F40083A7040013078000B384F400B0
:1033000083A704006366F70A638E070683A644005A
:10331000130710002320D5006386E70683A68400E8
:10332000130720002322D500638EE70483A6C40080
:10333000130730002324D5006386E70483A6040125
:10334000130740002326D500638EE70283A64401BD
:10335000130750002328D5006386E70283A6840163
:1033600013076000232AD500638EE70083A6C401FB
:1033700013077000232CD5006386E70003A704021F
:10338000232EE5002320F402232089008320C1019D
:103390000324810183244101032901018329C10000
:1033A000032A810013050000130101026780000059
:1033B00037460B40B7450B401306460B9385050770
:1033C00013050A00EFD0DFFE83A70900138509006B
:1033D0009305040083A74700E78007008320C1010D
:1033E0000324810183244101032901018329C100B0
:1033F000032A8100130510001301010267800000F9
:1034000013050000678000001305000067800000BE
:1034100003270600130101FF930706000327070097
:103420002324810023229100130405001306400089
:10343000138507002326110093054001938406009D
:10344000E7000700832704001306A00023200500DF
:10345000B307F44003D70700232205002324050007
:1034600023260500232805006370E60C83D6A700F9
:10347000638C060AB306D40003C606009306000256
:103480006314D60A9306C00063F0E60A83D7C70028
:103490003304F400638A070883270400930640007E
:1034A0003304F40083270400B307F44003D7070074
:1034B00063FAE60883D6470013060000639C060AF9
:1034C0002320C5009306600063FEE60683D66700EE
:1034D00013060000639A06082322C50093068000A5
:1034E00063F2E60683D6870013060000639806069B
:1034F0002324C5009306A00063F6E60483D6A70044
:1035000013060000639606042326C5009306C00038
:1035100063FAE60283D7C700638607023304F40028
:10352000832704002328F5008320C10003248100A1
:1035300023A0A4008324410013050000130101010E
:1035400067800000930700002328F5006FF0DFFD7F
:10355000B306D40003A606006FF01FFBB306D40029
:1035600003A606006FF0DFF8B306D40003A606003A
:103570006FF09FF6B306D40003A606006FF05FF469
:1035800003270600130101FF930706000327070026
:103590002324810023229100130405001306400018
:1035A00013850700232611009305800093840600ED
:1035B000E7000700832704001306A000232005006E
:1035C000B307F44003D70700230205006372E6083F
:1035D00083D6A700638E0606B306D40003C6060092
:1035E0009306C0016316D6069306C00063F2E60692
:1035F00083D7C7003304F400638C070483270400D7
:1036000013064000130710003304F400832704005E
:10361000B307F44083D60700637AD60203D7470086
:1036200093050000631407042320B500130760000E
:10363000637AD70483D767001307100063880700F5
:103640003304F400034704003337E0002302E500AD
:103650008320C1000324810023A0A400832441000F
:103660001305000013010101678000003307E40027
:10367000830507001387F5FFE378E6FA930500005A
:103680006FF09FFA130710002302E5006FF05FFC54
:1036900003270600130101FF930706000327070015
:1036A0002324810023229100130405001306400007
:1036B00013850700232611009305C000938406009C
:1036C000E7000700832704001306A000232005005D
:1036D000B307F44003D707002322050023040500A5
:1036E000637AE60883D6A70063860608B306D4008B
:1036F00003C6060093066000631ED6069306C0004C
:1037000063FAE60683D7C7003304F4006384070630
:1037100083270400930640003304F4008327040049
:10372000B307F44003D7070063F4E60683D64700E7
:1037300013060000639206082320C500930660006C
:1037400063F8E60683D66700130600006398060454
:103750002322C5009306800063FCE60283D787001E
:10376000638807023304F40083470400B337F00092
:103770002304F5008320C1000324810023A0A400BA
:10378000832441001305000013010101678000003C
:10379000930700002304F5006FF0DFFDB306D400AB
:1037A00003860600930640009305F6FFE3F2B6FA9F
:1037B000130600006FF0DFF9B306D40003A606007D
:1037C0006FF09FF7130500006780000013050000ED
:1037D0006780000003270600130101FF930706001E
:1037E00003270700232481002322910013040500EE
:1037F0001306400013850700232611009305C0001F
:1038000093840600E7000700832704001306A00046
:1038100023200500B307F44003D707002322050047
:10382000232405006374E60A83D6A7006380060A92
:10383000B306D40003C60600930610036318D60827
:103840009306C00063F4E60883D7C7003304F4008E
:10385000638E070683270400930640003304F400B8
:1038600083270400B307F44003D7070063FEE6068E
:1038700003D6470093051000630E06003306C4000C
:1038800083060600638806009386F6FF93B616004B
:10389000939516002320B5009306600063FAE604B2
:1038A00083D6670013060000639A06042322C5002E
:1038B0009306800063FEE60283D78700638A0702CF
:1038C0003304F400832704002324F5008320C1007F
:1038D0000324810023A0A4008324410013050000D9
:1038E0001301010167800000930710002320F500F9
:1038F000930700002324F5006FF05FFDB306D400AA
:1039000003A606006FF09FFA03270600130101FFCC
:103910009307060003270700232481002322910038
:103920001304050023261100138507001306400029
:103930009305800093840600E700070083270400B6
:103940009306A00023200500B307F44003D7070027
:103950002322050063FCE60683D6A70063880606DB
:10396000B306D40003C60600930600046310D6060F
:103970009306C00063FCE60483D7C7003304F40059
:103980006386070483270400930640003304F40091
:1039900083270400B307F44003D7070063F6E60467
:1039A00083D6470013060000639606042320C50053
:1039B0009306600063FAE60283D767006386070216
:1039C0003304F400832704002322F5008320C10080
:1039D0000324810023A0A4008324410013050000D8
:1039E0001301010167800000930700002322F50006
:1039F0006FF0DFFDB306D40003A606006FF01FFBD7
:103A000003270600130101FF9307060003270700A1
:103A10002324810023229100130405001306400093
:103A20001385070023261100930580009384060068
:103A3000E7000700832704001306A00023200500E9
:103A4000B307F44003D70700232205006376E60896
:103A500083D6A70063820608B306D40003C6060017
:103A60009306F006631AD6069306C00063F6E606D0
:103A700083D7C7003304F40063800706832704005C
:103A8000130740003304F40083270400B307F44015
:103A900083D607006372D70403D74700630C07007F
:103AA0003307E400032607003307C7001307470066
:103AB0002320E500130760006370D70283D76700F7
:103AC000638C07003304F400832704003304F400FC
:103AD00013044400232285008320C10003248100B5
:103AE00023A0A40083244100130500001301010159
:103AF00067800000130101FE232C8100232A91001E
:103B000023282101232631012324410123225101AD
:103B1000232E110023A006009304050093890500BD
:103B200013890600130A0600EFE0152883A7040096
:103B30009305800013040500B387F44003D7070002
:103B4000930A100063F6E50083D6870063900606AB
:103B50009305600963C4850693060002630ED406CC
:103B600083A7090013860A009305040083A70700B2
:103B700013850900E7800700930705002320A900AB
:103B8000130500006386070A8320C1010324810115
:103B900083244101032901018329C100032A8100F3
:103BA000832A41001301010267800000B386D4001C
:103BB0009305600983AA0600E3D085FAB7450B4058
:103BC000130604009385C50B13050A00EFD04FFEC2
:103BD000130510006FF05FFB9306600063FEE602C2
:103BE00083D56700638A050283A70900B384B40004
:103BF00083A5040083A7470013860A00B385B40099
:103C00009385450013850900E78007002320A9005C
:103C1000133515006FF05FF7B7450B409385451BD3
:103C200013050A00EFD0CFF8130510006FF0DFF591
:103C3000634A0402B7550B40131424009385058E84
:103C40003304B40003260400B7450B4093860A00F2
:103C50009385051113050A00EFD08FF513051000A9
:103C60006FF09FF237A60640130606BD6FF0DFFD2A
:103C7000130101FE232C8100232A910013840600E6
:103C80009304060093060000130600002328210178
:103C900023263101232E1100930905001389050005
:103CA000EFF0C5426314050223A004008320C10184
:103CB00023200400032481018324410103290101FD
:103CC0008329C1001301010267800000130604006C
:103CD0001385090093050900EF30C62BB7470C4048
:103CE00003A687C883A6C7C8EF00865EEF30563AA2
:103CF000EFF0D5756340B006638A0504370700808E
:103D000083270400630AE502130710FE63D6E70069
:103D100023200400130500008320C1010324810136
:103D200023A0A40003290101832441018329C100A8
:103D30001301010267800000E39805FC93871700D8
:103D40002320F400370500406FF01FFCB707008008
:103D5000E3F6A7FAEF10062D130101FDB7470C405B
:103D600023202103232E3101138906009309060025
:103D700083A647C903A607C92324810223229102EF
:103D8000232611029304050013840500EFF0453447
:103D9000635805081385040093050400130600000A
:103DA00093060000EFF04533635CA0061306C100E4
:103DB0001385040093050400EF30C61DB7470C407F
:103DC00003A687C883A6C7C8EF008650EF30562CDD
:103DD000EFF0D5676346B0046380050637070080BF
:103DE0008327C1006300E504130710FE63D6E702D2
:103DF00023A00900930700008320C102032481024D
:103E00002320F90083244102032901028329C101EF
:103E1000130101036780000023A0A900E35EF0FC0A
:103E2000EF104620E39205FC938717002326F1004C
:103E3000370500406FF05FFBB7070080E3F0A7FA9B
:103E40006FF01FFE130101FD23286101130B050014
:103E5000370500803355E500232611022324810213
:103E60002322910223202103232E3101232C4101FF
:103E700093890700232A510123267101138A050023
:103E8000938A060093040800930B0600EF00164087
:103E9000130905001384050093860A0013860B009E
:103EA00093050A0013050B00EF0086421306050078
:103EB000938605001305090093050400EF004641B1
:103EC000B7470C4003A947CB03AA07CB930A0500C9
:103ED0009306090013060A0013840500EFF0C51FBE
:103EE0006346A006B7470C4003A607C983A647C987
:103EF00013850A0093050400EFF0051E6352A00A23
:103F000013850A00930504001306000093060000C1
:103F1000EFF0C51B6310050423A0090023A00400D3
:103F20008320C10203248102832441020329010268
:103F30008329C101032A8101832A4101032B010145
:103F4000832BC1001301010367800000930A0A005C
:103F5000130409001386040013850A009305040066
:103F6000EF304603B7470C4003A687C883A6C7C8EF
:103F7000EF000636EF30D611EFF0554D6342B00238
:103F8000638205043707008083A704006302E5020B
:103F9000130710FE63C8E70023A0A900E3D207F8C7
:103FA000EF10460823A0040023A009006FF05FF77C
:103FB000E39005FE9387170023A0F4003705004027
:103FC0006FF01FFDB7070080E3FEA7FA6FF05FFDFB
:103FD000130101FE232A91009304100023282101DC
:103FE000130905003395A4001305F5FF232C810068
:103FF0002326310113040600232E110093890500A6
:10400000EF00D62833062441930706FE1309050066
:104010001384050063CE0706B395F4001305000072
:10402000EF005637130605009386050013050900B7
:1040300093050400EF00C629938709FE9304050049
:104040001384050063CC070493051000B395F500B5
:1040500013050000EF0016341306050093860500D3
:104060001385040093050400EF000667EF209657C0
:10407000EF00D6378320C10103248101832441014D
:10408000032901018329C100130101026780000097
:10409000930500003395C4006FF09FF813051000DE
:1040A00093050000331535016FF0DFFA83A7050093
:1040B00083A6070093874700634E0602635CD6021F
:1040C000131626003386C7008325060063C4050245
:1040D00083278500638C0700139525003305B50001
:1040E000131535003385A700678000008327050579
:1040F00067800700130500006780000083A50500A6
:10410000130101FF232611002324810003A80500C9
:104110009307060013070500634806046356060567
:1041200093172600B387F50083A547009307F0FF98
:10413000638AF5068327850013840600638E0704CF
:10414000139525003305B500131535003385A700F9
:104150002320A4008320C100032481001305000054
:10416000130101016780000083284701B7550B4008
:10417000130507009306080013860700938505B40E
:10418000E78008008320C10003248100130510008C
:10419000130101016780000083270505E780070000
:1041A0006FF01FFB83274501B7550B409385C5B6BC
:1041B000E78007008320C10003248100130510005D
:1041C000130101016780000083A7450083A6070053
:1041D00093874700634E0602635CD60213162600DF
:1041E0003386C7008325060063C405028327850044
:1041F000638C0700139525003305B50013153500B2
:104200003385A700678000008327050567800700C6
:10421000130500006780000083A54500130101FF1E
:10422000232611002324810003A80500930706001C
:104230001307050063480604635606059317260016
:10424000B387F50083A547009307F0FF638AF5065F
:104250008327850013840600638E070413952500C9
:104260003305B500131535003385A7002320A400BE
:104270008320C10003248100130500001301010104
:104280006780000083284701B7550B4013050700DE
:104290009306080013860700938505B4E78008009D
:1042A0008320C100032481001305100013010101C4
:1042B0006780000083270505E78007006FF01FFB7C
:1042C00083274501B7550B409385C5B6E7800700A6
:1042D0008320C10003248100130510001301010194
:1042E0006780000083A7050083A607009387470027
:1042F000634E0602635CD602131626003386C7009F
:104300008325060063C4050283278500638C0700AC
:10431000139525003305B500131535003385A70027
:1043200067800000832705056780070013050000EC
:1043300067800000130101FD23229102232E310129
:10434000232C4101232A5101232861012326110234
:1043500023248102232021032326710183AA8500BF
:10436000032B86009309050093040700138A0700B6
:10437000638A060813850A0013840600EF50C656A8
:10438000930B050013050B0013890500EF50C6556C
:10439000130605009386050013850B00930509009D
:1043A000EFF015731309050003258400138405003D
:1043B000EF50865313060500938605001305090088
:1043C00093050400EFF055671309050003A5840069
:1043D0001394150013541400EF50065113060500F2
:1043E000938605001305090093050400EF00C62E0F
:1043F000B7470C4003A607CC83A647CCEFE0D536E1
:104400006344A00893050B0013850A00EFE01573C1
:104410009305000013040500EFE0152B634E05081B
:1044200013050400EF50464C9307050003A58400D4
:104430001384050093840700EF50064B1306050014
:10444000938605001385040093050400EF00C62839
:104450002320AA002322BA00130500008320C102F2
:104460000324810283244102032901028329C1011B
:10447000032A8101832A4101032B0101832BC100FF
:10448000130101036780000083A7490137570B40E0
:10449000130707BA9306E01337560B40B7550B4086
:1044A00013850900130646BC938505BFE780070006
:1044B000130510006FF09FFA37570B4083A749018F
:1044C000130787C09306B0146FF01FFD8327C60142
:1044D000130101FD232481022322910223202103C1
:1044E000232E310123261102232C4101232A5101BD
:1044F00023286101232671012324810123229101B4
:104500001308300093040500138405001389060086
:104510009309070063820713130790006382E70A79
:10452000130770006390E704378A0000130AFAFF4C
:10453000B78AFFFF93071000032B8600832BC6006A
:10454000630CF40893073000630EF40E9307200009
:104550006300F41A2320590123A049011305000028
:104560006F00C0028327450137570B4037560B4079
:10457000B7550B40130747C293061019130646BCE4
:10458000938505BFE7800700130510008320C10253
:104590000324810283244102032901028329C101EA
:1045A000032A8101832A4101032B0101832BC100CE
:1045B000032C8100832C410013010103678000005C
:1045C00093071000032B8600832BC600130AF00705
:1045D000930A00F8E318F4F693050B0013050000A6
:1045E000EFE01577EF504630EF30862AEF50863DEA
:1045F000B7470C4083A587CC130B0500EFE0D50C23
:1046000063400518B7470C4083A5C7CC13050B00C2
:10461000EFE095056346A01613050B00EFF0455B30
:10462000B30B750163C65B192320790123A04901EF
:10463000130500006FF09FF5130AF00F930A0000B6
:104640006FF05FEF93050B0013050000EFE055706E
:10465000EF508629EF30C623EF50C63637440C4062
:10466000832584CC130C0500EFE015066344050C8C
:10467000B74C0C4083A5CCCC13050C00EFE0C57EF5
:10468000634AA00A13050C00EFF08554B3077501C7
:1046900063C8571337470C40032507CD2320F90083
:1046A00093050B00EFE0D56AEF500624EF30461E6D
:1046B000EF504631832584CC13040500EFE0D5008C
:1046C000634A050683A5CCCC13050400EFE0C57949
:1046D0006342A00613050400EFF0854FB30B75018C
:1046E000634C7A0D23A07901130500006FF01FEAD7
:1046F000B7470C4003A547CD93050B0037440C404A
:10470000EFE01565EF50461EEF308618EF50862B10
:10471000832584CC130C0500EFE0057B634C05007A
:10472000B74C0C4083A5CCCC13050C00EFE0C5734F
:10473000635AA00283A7440137570B4037560B40FA
:10474000B7550B40138504001307C7C29306901595
:10475000130646BC938505BFE780070013051000CC
:104760006FF0DFE213050C00EFF08546B30775012B
:1047700063CC570537470C40032587CD6FF01FF2F8
:1047800083A7440137570B4037560B40B7550B40B2
:10479000138504001307C7C293069015130646BC81
:1047A000938505BFE7800700130504006FF01FDE47
:1047B000938B0A006FF05FE7930B0A006FF09FF294
:1047C00093870A006FF01FED93870A006FF09FFA3E
:1047D000130101F803230108232E710583AB0500A3
:1047E000232A91062326310723225107232061071C
:1047F000232C8105232A910593840500232E11067D
:10480000232C810623282107232441072328A105DF
:104810002326B10593051000232661002328D1002B
:104820002324F100232A0101232C1101032B410829
:10483000832C8108032CC108832A010993090500F0
:10484000638EBB0603234501B7570B4037570B4018
:1048500037560B40B7550B4013880B0093081000D8
:10486000938747C5130707C79306A00D130646BCD9
:104870009385C5C8E7000300930B10008320C10790
:104880000324810783244107032901078329C106E3
:10489000032A8106832A4106032B0106032C810586
:1048A000832C4105032D0105832DC10413850B00C5
:1048B000832BC1051301010867800000032A06004D
:1048C00013090600630E7A0303234501B7570B4013
:1048D00037570B409308100013080A00938747C509
:1048E000130787CA9306C00D37560B40B7550B40C8
:1048F000130646BC9385C5C8E70003006FF01FF898
:1049000013040700032746006302071C83270700E0
:104910006382071803A8070063D60B0783A6C401A8
:10492000938696FF93F6D6FF63860602832745019A
:1049300037570B40130747CF9306C00E37560B402F
:10494000B7550B40130646BC938505BFE7800700AB
:104950006FF0DFF28326C601930590006396B614CC
:1049600063800A19B7570B4037570B4003234501A3
:1049700093880A00938707D4130707D59306F00E90
:104980006FF09FF603A58400832B8400635A5009BF
:10499000232EF100EF405675930D050013850B0093
:1049A0002324B1032326B102EF4016748327C101EB
:1049B000938D0C00130D0C002320A1022322B102C1
:1049C000930C0000130CC103930B810303A5470054
:1049D000232EF100938D4D00EF40167103268102C6
:1049E0008326C102130D4D00938C1C00EFF0550E71
:1049F0000326010283264102EFF0154E93060C00B8
:104A000013860B00EFF0CFA6832681038327C10115
:104A100023AEDDFE8326C103232EDDFEE3C85CFB4F
:104A200083A7C401130730006388E71813079000B9
:104A30006388E70013077000930B0000E390E7E43E
:104A40008327810013060400032481078326C10005
:104A50008320C1078324410703290107032A810614
:104A6000832A4106832BC105032C8105832C410534
:104A7000032D0105832DC10483A5070013070B0037
:104A800013850900032B01068329C10613010108C0
:104A90006FF0DFA337570B4083274501130787CDFE
:104AA0009306800E6FF09FE9B7C70B4037570B4056
:104AB000138806000323450193089000938787DF3E
:104AC000130707D39306E00E6FF01FE237570B4032
:104AD00083274501130747CC9306700E6FF01FE63E
:104AE0008326870003274601939626003307D700C5
:104AF0008328470063821A03B7570B4037570B4090
:104B00000323450113880A00938747D7130707D467
:104B10009306000F6FF05FDD03A5840093874700C5
:104B2000232EF100EF40565C130705000325840097
:104B30002320E1022322B102EF40165B8327C1014B
:104B4000938D0C00130D0C002324A1022326B10227
:104B5000930C0000130CC103930B810303A5070002
:104B600093874700232EF100EF40165803260102D9
:104B700083264102938D4D00938C1C00EFF0457508
:104B8000032681028326C102130D4D00EFF0D534B8
:104B900093060C0013860B00EFF08F8D83268103A4
:104BA0008327C10123AEDDFE8326C103232EDDFE54
:104BB000E3C65CFB6FF0DFE6832C8900032901016B
:104BC00003AC84006308090813050C00EF40D651BC
:104BD000130D050013850C00938B0500EF40D65094
:104BE000130605009386050013050D0093850B0041
:104BF000EFF0056E930B050003258900138905006E
:104C0000EF40964E130605009386050013850B00B2
:104C100093050900EFF04562930B0500032584001E
:104C20001399150013591900EF40164C130605008F
:104C30009386050013850B0093050900EFF0D52935
:104C4000B7470C4003A607CC83A647CCEFE0C5319D
:104C50006340A00893850C0013050C00EFE0056E7F
:104C60009305000013090500EFE00526634A0508D7
:104C700013050900EF405647930B050003258400F8
:104C800013890500EF40564613060500938605007C
:104C900013850B0093050900EFF01524032641014D
:104CA0009306C103EFE0DFFC0327C1030326810164
:104CB00083A7C4013307E040930690002320E60059
:104CC000E380D7D813073000E38CE7D66FF09FD688
:104CD00083A7490137570B40130707BA9306E01320
:104CE00037560B40B7550B40130646BC938505BF9E
:104CF00013850900E7800700930B0A006FF01FB8C7
:104D000037570B4083A74901130787C09306B01498
:104D10006FF01FFD83A5450103254501130101FF28
:104D200023261100EFB0CFFD8320C1003335A00052
:104D300013010101678000002320050023220500E4
:104D4000232405006780000023200500232205009E
:104D50002324050067800000130510006780000011
:104D6000930700026382F504B7170000B307F5004C
:104D700003A64700630A0602130785019307000094
:104D80006F00C000938717006380C7028326070067
:104D900013070702E398B6FE9397570093874700DF
:104DA0003305F500678000001305000067800000F0
:104DB00067800000B71700003307F500032687401F
:104DC000630E060293878700B307F5001307000000
:104DD0006F00C000130717006302E60283A60700F6
:104DE00093874700E398B6FE130707481317270079
:104DF0003307E500032587006780000013050000E6
:104E000067800000130101FE23244101371A0000CE
:104E1000330A450103274A00232E1100232C810069
:104E2000232A910023282101232631012322510125
:104E30006308070493090500938A0500130485019C
:104E400093040000130900026F0000019384140012
:104E50001304040263F6E40283270400E39827FFA7
:104E60000325440093850A00EF00060D630E05023A
:104E700003274A009384140013040402E3EEE4FCC5
:104E8000130500008320C101032481018324410113
:104E9000032901018329C100032A8100832A4100DB
:104EA0001301010267800000939754009387470025
:104EB0003385F9006FF01FFD8327050013080500F7
:104EC0001386050003A7C701B7570040938707D68D
:104ED000631AF704930700026382F504B717000012
:104EE000B307F50083A54700638A05021307850110
:104EF000930700006F00C000938717006380F502DE
:104F00008326070013070702E398C6FE939757000E
:104F1000938747003305F800678000001305000001
:104F20006780000067000700130101FE232A91003B
:104F3000232E1100232C8100232821012326310157
:104F40009307000293040500638CF5120327050004
:104F5000B7570040938707D60327C701138405007E
:104F600013090600938906006316F706B7170000B9
:104F7000B307F50083A54700638C050693078501F9
:104F8000130700006F0080006300B70603A8070046
:104F90001307170093870702E31888FE37150000F0
:104FA000B384A40003A5C440630E050A13060400DD
:104FB000032481018320C1018324410103290101CC
:104FC0008329C100B7550B409385C5DF130101024A
:104FD0006FC00FBEE7000700E31205FCB717000023
:104FE000B387F40083A547009307F00763E4B70C89
:104FF000371500003386A40003278640832209006A
:10500000832F4900032F8900832EC900032E090135
:10501000032389018328C90193975500B387F400BE
:105020001318270023A2570023A4F70123A6E701A2
:1050300023A8D70123AAC70123AE670023A0170323
:1050400023AC870093851500B38404012322B600A6
:10505000B384A40023A4840023A4342113071700DD
:105060002324E6408320C1010324810183244101DC
:10507000032901018329C100130101026780000097
:10508000B7170000B304F50003A5C440E30C05FC0A
:10509000032481018320C1018324410103290101EB
:1050A0008329C100B7550B40938545DB13010102ED
:1050B0006FC00FB0B7170000B384F40003A5C4405D
:1050C000E30205FA13060400032481018320C101D1
:1050D00083244101032901018329C100B7550B40F5
:1050E000930600089385C5E4130101026FC04FAC1D
:1050F0008327050003A70702B7570040938747E0BF
:105100006314F70A130101FE23244101371A00003A
:10511000330A450103274A00232C8100232A9100EA
:10512000232821012326310123225101232E11009E
:1051300093090500938A0500130485019304000078
:1051400013090002631A07006F00800393841400A0
:105150001304040263F6E40283270400E39827FFA4
:105160000325440093850A00EFF0155D63000504F4
:1051700003274A009384140013040402E3EEE4FCC2
:10518000130500008320C101032481018324410110
:10519000032901018329C100032A8100832A4100D8
:1051A0001301010267800000670007009397540015
:1051B000938747003385F9006FF0DFFC130101FB93
:1051C00023229104B7140000232611042324810410
:1051D00023202105232E3103232C4103232A5103AD
:1051E0002328610323267103B3049500B7570B40AE
:1051F000938787F41304050023A2040023A404402A
:1052000023A604402320F40013050100EFC0C26F61
:10521000B716004093860658130601009305500602
:1052200013050400EFF05FD013050100EF60507C20
:10523000B7160040130601009386865893050000B8
:1052400013050400EFF05FCE13050100EF709056D8
:1052500003A64400631406006F30406A930784017C
:10526000130700009305A0066F00C0006314C70079
:105270006F10806583A60700130717009387070246
:10528000E396B6FEB7170000B307F40003A5C740C6
:10529000630A0500B7550B401306A0069385C5DFCA
:1052A000EFC00F9113050100EF80C075B717000024
:1052B000B307F40003A64700631406006F30806C48
:1052C0009307840113070000930580036F00C0005B
:1052D0006314C7006F10406883A607001307170008
:1052E00093870702E396B6FEB7170000B307F400F2
:1052F00003A5C740630A0500B7550B40130680039A
:105300009385C5DFEFC0CF8A13050100EF8040729F
:10531000B7170000B307F40003A6470063140600A4
:105320006F30C06593078401130700009305F004F4
:105330006F00C0006314C7006F10006B83A60700E6
:105340001307170093870702E396B6FEB71700000E
:10535000B307F40003A5C740630A0500B7550B4027
:105360001306F0049385C5DFEFC08F841305010099
:10537000EF80501CB7170000B307F40003A64700E6
:10538000631406006F300058930784011307000070
:10539000930500096F00C0006314C7006F10C07F41
:1053A00083A607001307170093870702E396B6FE4C
:1053B000B7170000B307F40003A5C740630A050050
:1053C000B7550B40130600099385C5DFEFB05FFEAC
:1053D00013050100EFB0D36DB7290040130601009B
:1053E000938689729305100013050400EFF0DFB374
:1053F00013050100EF908018B7170000B307F40001
:1054000003A64700631406006F30405693078401DB
:1054100013070000930550026F00C0006314C7001B
:105420006F10806E83A6070013071700938707028B
:10543000E396B6FEB7170000B307F40003A5C74014
:10544000630A0500B7550B40130650029385C5DF6C
:10545000EFB01FF613050100EF90802EB726004035
:105460009386068E130601009305100813050400A9
:10547000EFF09FAB13050100EF90406EB7260040A0
:105480009386869A1306010093058006130504008F
:10549000EFF09FA913050100EF605134B7260040DB
:1054A000130601009386069B930520001305040054
:1054B000EFF09FA713050100EF80516CB7170000B4
:1054C000B307F40003A64700631406006F30804A58
:1054D0009307840113070000930530006F00C0009C
:1054E0006314E6006F10405983A6070013071700E6
:1054F00093870702E396B6FEB7170000B307F400E0
:1055000003A5C740630A0500B7550B4013063000DA
:105510009385C5DFEFB0DFE913050100EFC0424816
:10552000B72600409386C6D7130601009305C00630
:1055300013050400EFF05F9F13050100EFF0917D6C
:10554000B72600409386C6C71306010093050008DE
:1055500013050400EFF05F9D13050100EF009202B8
:10556000B7260040938646D81306010093055000E5
:1055700013050400EFF05F9B13050100EF100229F3
:10558000B72600409386C6E4130601009305400049
:1055900013050400EFF05F9913050100EF609223FB
:1055A000B72600409386C6041306010093056000E9
:1055B00013050400EFF05F97B71A0000EFB04277D1
:1055C000B30A540183A74A001307F007130B050021
:1055D0006374F7006F205032B75B0B40638607049B
:1055E0009304840113090000B75B0B40130A000207
:1055F0006F00C000938404026378F90203A70400DB
:1056000013091900E31847FF03A5440093850BE92C
:10561000EFF09512631405006F10006183A74A0034
:1056200093840402E36CF9FC83280B0003284B00ED
:1056300003258B008325CB0003260B018326CB019A
:10564000371700003307E4001383170093975700C0
:1056500023226700B307F400938B0BE913070002C2
:1056600023A2170123A4070123A6A70023A8B7009C
:1056700023AAC70023A0D70223ACE70023AE7701FB
:1056800013050100EFC09219B72600409386460526
:10569000130601009305F00613050400EFF0DF8800
:1056A00013050100EF60413DB72600409386C60513
:1056B000130601009305700413050400EFF0DF8664
:1056C000EFC0921A130A05006300050C371B000097
:1056D000EFC0121A330B640183274B001307F00746
:1056E000930B05006374F7006F2010266384070492
:1056F0009304840113090000930A00026F00C000A4
:10570000938404026378F90203A7040013091900C3
:10571000E31857FF03A5440093850B00EFF0D50174
:10572000631405006F20D01F83274B00938404026D
:10573000E36CF9FC83280A0003284A0003258A0049
:105740008325CA0003260A018326CA0137170000F1
:105750003307E40013831700939757002322670051
:10576000B307F4001307000223A2170123A40701C3
:1057700023A6A70023A8B70023AAC70023A0D70207
:1057800023ACE70023AE770113050100EFC0124DF3
:10579000B726004013060100938646069305F002E3
:1057A00013050400EFF04FF813050100EFD0C229F4
:1057B000B7170000B307F40003A647006314060000
:1057C0006F304013930784011307000093056004B2
:1057D0006F00C0006314C7006F10103F83A607005E
:1057E0001307170093870702E396B6FEB71700006A
:1057F000B307F40003A5C740630A0500B7550B4083
:10580000130660049385C5DFEFB09FBA130501004E
:10581000EFD05202B72600409386460713060100D8
:105820009305E00513050400EFF00FF013050100E8
:10583000EFD0D219B72600409386C60713060100A1
:105840009305800013050400EFF00FEE130501002F
:10585000EFE0C218B7260040130601009386460801
:105860009305A00513050400EFF00FEC13050100EC
:10587000EFE01217B7170000B307F40003A64700C4
:10588000631406006F30000E9307840113070000B5
:105890009305F0056F00C0006314C7006F10D03B84
:1058A00083A607001307170093870702E396B6FE47
:1058B000B7170000B307F40003A5C740630A05004B
:1058C000B7550B401306F0059385C5DFEFB05FAE0B
:1058D00013050100EFF00212B7170000B307F40040
:1058E00003A64700631406006F3040079307840146
:1058F00013070000930590006F00C0006314E600DA
:105900006F10903E83A607001307170093870702C6
:10591000E396B6FEB7170000B307F40003A5C7402F
:10592000630A0500B7550B40130690009385C5DF49
:10593000EFB01FA813050100EF60811DB7260040DE
:1059400093868625130601009305D00313050400F2
:10595000EFF08FDD13050100EF604120B726004016
:1059600093860626130601009305E0031305040041
:10597000EFF08FDB13050100EFF0026AB72600405D
:10598000130601009386862693055007130504002D
:10599000EFF08FD913050100EF10430EB717000089
:1059A000B307F40003A64700631406006F20907A43
:1059B00093078401130700009305B0006F00C00037
:1059C0006314E6006F10503B83A60700130717000F
:1059D00093870702E396B6FEB7170000B307F400FB
:1059E00003A5C740630A0500B7550B401306B00076
:1059F0009385C5DFEFB0DF9B13050100EF00C352B5
:105A000093868972130601009305C00013050400F4
:105A1000EFF08FD113050100EF10C30BB726004044
:105A200093868634130601009305200613050400AF
:105A3000EFF08FCF13050100EF600117B72600408C
:105A400013060100938646419305A0031305040045
:105A5000EFF08FCD13050100EF60C119B7170000FB
:105A6000B307F40003A64700631406006F20106E0E
:105A700093078401130700009305F0036F00C00033
:105A80006314E6006F10503883A607001307170051
:105A900093870702E396B6FEB7170000B307F4003A
:105AA00003A5C740630A0500B7550B401306F00372
:105AB0009385C5DFEFB0DF8F13050100EFB01273E0
:105AC000B7260040938646421306010093059004D2
:105AD00013050400EFF04FC513050100EF20037715
